S02B000073696C6162735F6566723332626732325F626C655F736F635F6C6364313630325F6932635F636F6E9B
S214000000C00A002081150000079C0100079C010023
S21400001007AC0100079C0100079C0100079C01003B
S214000020079C0100079C0100079C0100079C01003B
S214000030079C0100782B0200F3990100079C010041
S214000040079C0100079C0100079C0100079C01001B
S214000050079C0100079C0100079C0100079C01000B
S214000060079C0100079C0100079C0100079C0100FB
S214000070FD640000079C0100079C010011100000B1
S214000080B59A0100079C0100079C0100079C01002F
S214000090079C0100B51E0000079C0100079C01009C
S2140000A0079C0100AD20000089200000079C01008D
S2140000B0079C0100B1720100079C0100F97C010059
S2140000C03715020033150200E974010043150200DB
S2140000D03B150200D17C01003F150200397D01006E
S2140000E0C556010089580100A97D0100079C010042
S2140000F0079C0100079C0100079C0100079C01006B
S214000100079C0100079C0100079C0100079C01005A
S214000110079C0100079C0100079C0100079C01004A
S214000120079C0100079C0100079C0100079C01003A
S214000130079C0100079C0100079C0100079C01002A
S214000140013800D0FCE77047002370B5404C0546E8
S2140001508AB0E36318B1008823600BF01BF93D48B2
S21400016020F048FD3C4E3D4B304633603C4B7360C0
S2140001701DF004FF0021304611F028FA32A3D3E91F
S2140001800023A062C4E906231DF003FFD4E906237A
S21400019019431043C4E90601CDE900014FF0FF33CF
S2140001A04FF0FF32A06A20F0A0FD02224FF0FF3190
S2140001B0A06A20F09FFD01200AF066FE4FF400734F
S2140001C000222849A06A20F0E8FDB0F5007F38D16B
S2140001D000239422CDE9073309933C23CDE903326B
S2140001E005939623A06A03A9069311F00DFB35B379
S2140001F0287C0BF04FFA0546F0B9A06A20F0AEFE58
S2140002000BF0F6F90AF022FE20B14FF480700021C0
S21400021008F094FE0AF02AFE20B14FF40060002198
S21400022008F08CFE1DF07FFF012011F023FA0E4A25
S2140002300E49A06A1DF0A0FE28460AB070BDFF2039
S214000240D7E70725F8E700BF0DD5015520000000C9
S21400025060110020690345ECB02400200DAD0000BD
S214000260C0240020B022002021DF010061DF010051
S2140002700348044B834202D0034B03B11847704730
S214000280EC100020EC10002000000000064B074990
S214000290C91A891048BF0131491003D0044B0BB16D
S2140002A001481847704700BFEC100020EC100020F3
S2140002B00000000010B5064C237843B9FFF7D8FFBE
S2140002C0044B13B10448AFF300800123237010BD24
S2140002D0342C0020000000007074020008B5054BA6
S2140002E01BB105490548AFF30080BDE80840FFF79D
S2140002F0CDBF00BF00000000C013002070740200D5
S214000300A3F5803A704700BF174B002B08BF134B6E
S2140003109D46FFF7F5FF00218B460F461348144A0B
S214000320121A21F0D0F90E4B002B00D098470D4B37
S214000330002B00D098470020002104000D000D4837
S214000340002802D00C48AFF3008017F053FF2000BF
S214000350290019F0E8FA17F03BFF00BF000008007C
S2140003600000000000000000C00A0020EC10002082
S2140003704C2D002000000000000000007FB5012387
S214000380ADF80630064B4000ADF804000291186840
S21400039001A9ADF80C2001F041FB07B05DF804FBA5
S2140003A0D40A002030B50546144685B02AB9B621D1
S2140003B0134B144A144817F0F5FF072903D9B72141
S2140003C0124B104AF6E7C90041F0400101F0F8016F
S2140003D019F024FA402301AA11468DF80430631E52
S2140003E0073413F8010F00F01F00A34202F8010FB4
S2140003F0F7D109222846FFF7C1FF05B030BD00BF80
S2140004009D240200C92402008E240200AC240200AF
S21400041013B50021022000F079F9F0B1124C13490F
S21400042020681AF033FA124920681AF02FFA19F0E9
S2140004308CFB19F08BFB0F4B0F4A00930F491723C9
S21400044020681AF023FA0E490E4A20681AF01EFA9F
S2140004500D4920681AF01AFAFEE76B2002B0BDE8D4
S214000460104019F099BA00BF901400203E250200F3
S214000470E424020040250200E9240200F2240200DF
S21400048013250200FE2402002B25020003688D4A75
S21400049023F47F4323F00703934273B500F00581EE
S2140004A002F57C02934200F0AD80874A934240F00A
S2140004B00781864E30460DF0A9FA054610B3844CE7
S2140004C0844920681AF0E2F9834920681AF0DEF9B8
S2140004D019F03BFB19F03AFB804B814A00938149A7
S2140004E01F2320681AF0D2F97F492B467F4A2068DE
S2140004F01AF0CCF9284600F0E1FE7D4920681AF093
S214000500C5F9FEE7022130780DF0BAFA044610B3BA
S2140005106F4D704928681AF0B9F96F4928681AF0C3
S214000520B5F919F012FB19F011FB6C4B6C4A0093ED
S2140005306C49262328681AF0A9F96B4923466B4AAA
S21400054028681AF0A3F9204600F0B8FE6849286823
S2140005501AF09CF9FEE7A022009003461146307878
S2140005600DF06CFA054610B3594C5A4920681AF03B
S2140005708DF9594920681AF089F919F0E6FA19F048
S214000580E5FA564B564A00935649312320681AF02E
S2140005907DF955492B46554A20681AF077F92846C2
S2140005A000F08CFE524920681AF070F9FEE702212E
S2140005B030780DF079FA0546002800F08180444C2A
S2140005C0444920681AF062F9434920681AF05EF937
S2140005D019F0BBFA19F0BAFA404B414A0093414968
S2140005E0392320681AF052F93F492B463F4A2068C3
S2140005F01AF04CF9284600F061FE3D4920681AF0D2
S21400060045F9FEE7314C022120780DF039FA05460F
S21400061010B32F4C2F4920681AF038F92E4920685D
S2140006201AF034F919F091FA19F090FA2B4B2C4A7B
S21400063000932C49442320681AF028F92A492B46AF
S2140006402A4A20681AF022F9284600F037FE284980
S21400065020681AF01BF9FEE7022120780DF024FA34
S214000660054668B31A4C1B4920681AF00FF91A4958
S21400067020681AF00BF919F068FA19F067FA174BA8
S214000680174A009317494B2320681AF0FFF81649BB
S2140006902B46164A20681AF0F9F8284600F00EFE97
S2140006A0134920681AF0F2F8FEE7B0F805301C2B64
S2140006B006D1817A0B3002B0BDE8704019F011B94E
S2140006C002B070BDA0000A00A0000100EA0E0020E3
S2140006D0901400203E250200E4240200802502003B
S2140006E049250200F22402005A250200572502007E
S2140006F06F250200034B1978034B41F00801187868
S21400070019F0C4B8352C0020362C00203E200422D8
S214000710024B1870024B1A7019F090B8362C002055
S214000720352C0020014B187819F0B2B8362C002072
S214000730054A137820B143F004031370FFF7DABFBD
S21400074003F0FB03F9E700BF352C0020054A1378B9
S21400075020B143F002031370FFF7CCBF03F0FD0394
S214000760F9E700BF352C0020054A137820B143F086
S21400077001031370FFF7BEBF03F0FE03F9E700BFE7
S214000780352C0020024B0A460146187819F089B825
S214000790362C0020024B0146187819F093B800BF9B
S2140007A0362C00200A4608B529B9BF21054B064A53
S2140007B0064817F0F7FD064B01461878BDE80840D6
S2140007C0FFF7F0BD8F250200AB2502009E25020034
S2140007D0362C0020F8B51C469DF818300646DB0778
S2140007E00D46174609D50E4B9A7832B159781878C7
S2140007F0FFF7C8FF2020FFF7CDFF67B12946304638
S214000800FFF7C0FF2046FFF7C5FF0122044B1E700E
S2140008105D709A70F8BD2046BDE8F840FFF7BABF95
S214000820382C00202DE9FF418846044600287ED05B
S21400083000297CD00027BE1CB3B2434503D9002054
S21400084004B0BDE8F081E2195178E35D8A1C3A44B1
S21400085097B2474504EB06056BD8013B0A2BEAD84E
S214000860DFE803F0060B0D1017202B34414F610014
S2140008700022284619F03CF8DDE70122F9E7FFF7E9
S21400088051FFD8E70129D6D96978A05DFFF77AFF2E
S214000890D1E70029CFD0A35D6B201A46194619F080
S2140008A04EF8C8E70129C6D90022114610466B78D3
S2140008B00093A35DFFF78EFFBDE70329BBD9EB7856
S2140008C000930122AB786978A05DF3E70829B2D9D6
S2140008D0D5F80100D5F8051002AB03C3A05D02A948
S2140008E0FFF760FFA7E70B29A5D9D5F80300D5F8D1
S2140008F0071002AB03C3A87802A9FFF753FFEB7AF1
S214000900DEE7002997D0A05D00F00100FFF710FF9A
S214000910A05DC0F34000FFF719FFA05DC0F38000A4
S214000920FFF722FF87E70122034B1A7083E70120B7
S21400093086E7032084E700BF372C0020F8B57D4B00
S2140009401A78002A00F0F48000241C7050236B20D4
S2140009501A46194618F0F3FF0120FFF7E9FE204675
S214000960FFF7F4FE2046FFF7FFFEFFF7DBFE22460A
S2140009701021714818F0BCFF012210216F4818F0B2
S214000980B7FF4FF4167018F0AEFF502423462246E9
S21400099021466B20053418F0D2FFE4B20C2018F084
S2140009A0A2FFFA2CF2D16B2018F0F1FF4FF416706C
S2140009B018F099FF00221021614818F099FF2024B2
S2140009C0002501212846FFF7DDFE20460134FFF70B
S2140009D0E1FEE4B2122018F086FF01357F2C05F008
S2140009E00F05EED1C82018F07EFF002210215548D2
S2140009F018F07EFF01221021534818F079FF4FF4BB
S214000A00617018F070FF0024504D2946E0B20134A2
S214000A10FFF7C8FE042C05F10805F6D100221021C8
S214000A204B4818F065FF05244A4E01210020FFF7C9
S214000A30A9FE3746102517F8010B013DFFF7AAFE61
S214000A4015F0FF05F7D14FF4FA70013C18F04BFF94
S214000A5014F0FF0406F11006E7D1224610213E48A6
S214000A6018F046FF012210213C4818F041FF0120F3
S214000A70FFF76CFE0120FFF777FE4FF4966018F044
S214000A8032FF03240020FFF753FEC82018F02BFF88
S214000A900120FFF74DFE013CC82018F024FF14F09B
S214000AA0FF04EFD10120FFF751FE0120FFF75CFEA7
S214000AB00021E0B2FFF766FE322018F014FF013482
S214000AC02020FFF767FE102CF2D100240121E0B2AF
S214000AD0FFF758FE322018F006FF01342020FFF7FB
S214000AE059FE102CF2D14FF4487018F0FCFE00208E
S214000AF0FFF72CFE0020FFF737FE6B2018F047FFAD
S214000B0000222146164818F0F3FE01222146154819
S214000B1018F0EEFE4FF4FA6018F0E5FEFFF702FE5E
S214000B2000222146104818F0E3FE00220F4B9A7070
S214000B30F8BD00BF372C0020C4250200D5250200D2
S214000B40E6250200F725020008260200CF2602004E
S214000B50192602007F2602002A2602003B260200F3
S214000B604C2602005D2602006E260200382C00206D
S214000B707FB50123ADF806300223ADF80C30084BE4
S214000B8040008DF80010ADF8040001A918688DF833
S214000B900120CDF808D000F041FF07B05DF804FB57
S214000BA0D40A002030B503687C4A23F47F4323F040
S214000BB00703934289B040F0EE80082200211220FD
S214000BC0774B0CF097FF044610B3764D76492868AD
S214000BD019F05CFE7549286819F058FE18F0B5FF44
S214000BE018F0B4FF724B734A009373493D2328688C
S214000BF019F04CFE71492346714A286819F046FEE2
S214000C00204600F05BFB6F49286819F03FFEFEE7C0
S214000C100146032214206C4B0CF06CFF044610B304
S214000C20604D6149286819F031FE6049286819F05E
S214000C302DFE18F08AFF18F089FF5D4B5D4A009381
S214000C405D494B23286819F021FE5C4923465C4A1F
S214000C50286819F01BFE204600F030FB594928682A
S214000C6019F014FEFEE7014605221620574B0CF03D
S214000C7041FF054610B34B4C4B49206819F006FE61
S214000C804A49206819F002FE18F05FFF18F05EFF70
S214000C90474B484A009348495923206819F0F6FD07
S214000CA046492B46464A206819F0F0FD284600F0D3
S214000CB005FB4449206819F0E9FDFEE70DF10F0138
S214000CC004A80CF045FF044610B3364D3649286894
S214000CD019F0DCFD3549286819F0D8FD18F035FF05
S214000CE018F034FF324B334A0093334964232868A4
S214000CF019F0CCFD31492346314A286819F0C6FD63
S214000D00204600F0DBFA2F49286819F0BFFDFEE701
S214000D10BDF8143001465BBAADF818309DF81330B4
S214000D2008228DF81A30FF238DF81B30FE238DF82D
S214000D301C309DF8123018208DF81D30BDF810308C
S214000D405BBAADF81E3006AB0CF0D4FE054610B309
S214000D50144C1549206819F099FD1449206819F0BB
S214000D6095FD18F0F2FE18F0F1FE114B114A0093B3
S214000D7011497423206819F089FD10492B46104A42
S214000D80206819F083FD284600F098FA0D4920687F
S214000D9019F07CFDFEE709B030BD00BFA0000100E1
S214000DA0EF260200901400203E250200E4240200F4
S214000DB02A270200F8260200F22402005A25020022
S214000DC0572502006F250200202702002427020074
S214000DD010B5234C01F04CFC01F06CFE236F23F0A1
S214000DE0070343F00303236719F009F91D4B00209E
S214000DF09B6A9B075EBF01221B4B9A62D4F8203188
S214000E0023F0030343F00203C4F82031D4F824315E
S214000E1023F0070343F00203C4F82431D4F840312A
S214000E2023F0030343F00203C4F84031D4F86031E2
S214000E3023F0030343F00203C4F86031D4F84032D1
S214000E4023F0030343F00203C4F84032D4F8003220
S214000E5023F0070343F00203C4F8003210BD00BFBE
S214000E600080005000C0005000E0005008B502F0BE
S214000E7027FC01280ED1144B04205A6E4FF4802311
S214000E801249520358BF124A4B6601F510410862D8
S214000E9058BF536603F042FF18F066FE03F0CEFE1E
S214000EA003F026FF03F0ECFE19F09FFCFFF790FF1F
S214000EB003F0D4FE18F04FFE00F01CFC01F008F919
S214000EC0BDE8084004F096BB00800050009000503B
S214000ED000A0005008B53A20012101F0EFFABDE865
S214000EE00840014800F022BDC00A002030B5224D5F
S214000EF095B00DAC0FCD0FC495E80700032384E82A
S214000F0007008DF84D3029231C4A1D49CDE90223E0
S214000F101C4B0E22CDE904134FF4807300210DF113
S214000F202600069320F0CFFB4FF4A020164B07A90F
S214000F30CDE907030F238DF8243010238DF82530D4
S214000F40124B0DAA0A9320230B9301238DF8313000
S214000F500F4B1048009302AB04F00EF904469DF8C0
S214000F6032304FF4E130002B0CBF0321002118F083
S214000F703BFE204615B030BDA42A020000000650F5
S214000F800005000600080007240006503B2C002041
S214000F90D81300202C140020831E012B10B512D865
S214000FA0012922D8114B04221B6905210020C3F316
S214000FB0401301F0CBFF0E4B1B681868A8B1BDE8C4
S214000FC01040436A18478B1E012B0CD801280CD8FA
S214000FD0BDE810400022054B05211B691046C3F3EF
S214000FE0401301F0B3BF0129E5D910BD00C003507E
S214000FF0D80A002008B50449044804F0C1FBBDE83F
S2140010000840FFF773BF00BFDC0A00205014002022
S214001010014819F0AEBD00BF2C140020014B1A6A1F
S214001020186810472C140020014818F007BE00BFAF
S214001030C02A0200014818F08CBE00BFD82A020061
S214001040184B37B583422AD1174B1B783BB3C8B22F
S2140010500CF03EFD054610B3144C1549206819F0F7
S21400106015FC1449206819F011FC18F06EFD18F0F4
S2140010706DFD114B114A009311498523206819F024
S21400108005FC10492B46104A206819F0FFFB28463D
S21400109000F014F90D49206819F0F8FBFEE703B0DC
S2140010A030BD00BF581400205B2C00209014002098
S2140010B03E250200E4240200422B0200F02A020031
S2140010C0F22402005A250200572502006F2502006E
S2140010D030B500250368584A23F47F4323F00703FE
S2140010E085B0934204460295ADF80C507ED002F5CA
S2140010F0802293420ED0A2F18272934240F09A80F0
S2140011004E4B1B78002B00F0958005B0BDE83040B4
S21400111019F062BEB0F80530242B40F08B80FF2318
S21400112004A91A4611E9030018F008FD012814BFA7
S21400113041F2FC15414B05F0FC0208BF1870242153
S21400114020790CF0EDFC054610B33D4C3D49206877
S21400115019F09CFB3C49206819F098FB18F0F5FC48
S21400116018F0F4FC394B3A4A00933A495923206860
S21400117019F08CFB38492B46384A206819F086FB54
S214001180284600F09BF83649206819F07FFBFEE7FA
S214001190344900902379344A0968344800F0E8F866
S2140011A00546002846D0264C2649206819F06EFBD6
S2140011B02549206819F06AFB18F0C7FC18F0C6FC31
S2140011C0224B234A009323496223206819F05EFBD2
S2140011D021492B46214A206819F058FB284600F082
S2140011E06DF81F49206819F051FBFEE7B0F805308E
S2140011F0B7EE047A07EE903AF8EE677AB0F8073062
S21400120067EE877A013307EE103AB8EEC77A67EED4
S214001210877AB1EE047A67EE877AFAFE677AFCEE92
S214001220E77A17EE903AB3F57A7F38BF4FF47A73C1
S2140012300C4A136005B030BDA00006025B2C0020EF
S214001240901400203E250200E4240200512B0200E8
S214001250F02A0200F22402005A2502005725020056
S2140012606F250200E40A00204110000058140020F8
S214001270012208B5074B1A700022074B1A70042289
S214001280064B1A701F22064B1A7003F071FD054BB1
S214001290186008BDF00E00205C2C0020EF0E002029
S2140012A0EE0E002090140020024B0349186819F037
S2140012B0EDBA00BF901400204A26020070B50C4C10
S2140012C00C490646206819F0E1FA03F051FD054680
S2140012D0206803F041FD3046FFF7E6FF284603F09E
S2140012E03BFD20680449BDE8704019F0CFBA00BF46
S2140012F090140020712B0200732B020038B50546AF
S21400130018F099FE00230B4A14685CB1AC4206D173
S214001310A96A6BB1996218F094FE012007E0234693
S214001320A46AF2E7002DF3D018F08BFE204638BDF5
S2140013301160F0E79414002010B5044698B104F04C
S21400134089FE2046FFF7DAFF10B194F82C300BB96F
S214001350002010BD18F06FFE044A1368013B1360AE
S21400136018F06FFEF4E72220F3E700BF9814002081
S2140013702DE9F04385B00546914698460E469DF801
S214001380307009B9002F5CD12846FFF7D5FF044618
S214001390002836D185F82C00686304F04DFF86429D
S2140013A033D904F0E9FE2146844640F2E7304FF494
S2140013B07A720023E6FB0C0116F07AFD4FF0FF323E
S2140013C0002316F075FD2B46E88611462846CDE923
S2140013D000441D4A19F08DFC044690B9C5E90898EA
S2140013E085F82D702E6318F026FE184A136833B35E
S2140013F01A469B6A002BFBD195620023AB6218F05D
S21400140020FE204605B0BDE8F08347B12B463146A6
S2140014102846CDE900440C4A04F0D2FEDCE730460C
S21400142003A904F0AFFE04460028EAD12B4628465E
S214001430CDE90077044A039919F037FCCCE715602C
S214001440DBE72124DDE700BF5114000094140020E0
S21400145091F82C3013B50C4683B98B8ECA8E934206
S2140014600ED243B9CDE9003320460B46104A4FF062
S214001470FF3119F0FEFBA38E0133A38602B010BD28
S21400148052B191F82D307BB101230093D1E90823A6
S2140014902046096BFFF76CFF0123064A84F82C30C0
S2140014A0136801331360E9E7084604F0D3FDF3E759
S2140014B051140000981400202DE9F041144E3368B2
S2140014C023B34FF00008134F18F0B5FD05463C68EF
S2140014D024B92846BDE8F04118F0B3BD94F82C3086
S2140014E093B1336884F82C80013B336094F82D3038
S2140014F013B92046FFF702FF284618F0A2FDD4E9EC
S214001500083120469847DFE7A46AE1E7BDE8F081A6
S2140015109814002094140020034B1B68002B14BF63
S21400152004200120704700BF98140020024B186862
S214001530B0FA80F0400970479814002007B50820DC
S21400154018F0F0FB02238DF80030054B6846019337
S21400155018F00EFB082003B05DF804EB18F0EDBBA6
S214001560006A18100348044A0449121A921018F028
S2140015704BBB00BFB07A0200B07A02004C2D0020B0
S21400158008B500F02FF8FFF7EDFF124B12498B421B
S21400159012D30020114B12498B4218D3FEF7B4FE2B
S2140015A0186850F82240586840F82240013298687F
S2140015B08242F5D30C33EAE70022F8E71C6844F8C9
S2140015C0220001325C68A242F8D30833E4E7002226
S2140015D0F8E700BF78740200847402008474020086
S2140015E0847402004FF400414FF0FF30124B134A50
S2140015F010B59A60D3F8882042F47002C3F88820A9
S2140016000F4A916601F1884101F5005210664FF6C7
S214001610DF7050660220C3F8D000BFF34F8FBFF3D1
S2140016206F8F08244FF440330648C0F88041D360DB
S21400163004600B6110BD00BF00ED00E0000000007C
S2140016400090005000E100E0014B1868704700BFB2
S214001650EC0A0020084B1B6F03F00703022B04D094
S214001660032B05D0012B05D0FEE7044B1868704706
S214001670034BFBE70348704700800050EC0A00204D
S214001680F40A0020002D310108B5FFF7E3FF054BF3
S2140016901B6FC3F303330133B0FBF3F0024B186048
S2140016A008BD00BF00800050E80A002000487047D0
S2140016B000B4C404014B1868704700BFF40A002049
S2140016C0054B1860054B1B6F03F00703032B01D176
S2140016D0FFF7DABF704700BFF40A00200080005012
S2140016E000487047002D3101014B1868704700BF55
S2140016F0F00A002000239B6A10B5B3F5903F11D284
S21400170019680A4A91420DD1094C227812F0FD0F51
S21400171001D0002010BDDB6998470028FAD10123CC
S2140017202370F6E74FF48170F4E700BF07B0CD5E94
S2140017305D2C00204FF00053074A1A60BFF34F8F0E
S2140017400649074BCA6802F4E0621343CB60BFF356
S2140017504F8F00BFFDE700BF02020FF000ED00E074
S2140017600400FA050346054A0549106803448B42FF
S2140017708CBF4FF0FF301360704700BFF80A0020A0
S21400178000800020F7B50468012105463A2000F0E5
S21400179095FE002301226179207901F0D7FB1423FE
S2140017A03021227911FB023101F1A04101F570319F
S2140017B009686379D940C943A37901F00101022B76
S2140017C0217017D100F0CCFB164A2B4661792079A0
S2140017D000F0F0FBFF28024660790ED12A46114938
S2140017E000F020FC0123024661792079CDE9003320
S2140017F001F052FB002003B0F0BD0126277900233C
S21400180001460096384601F009FC2A4605496079EB
S21400181000F008FC002361790246207900930196C7
S2140018203346E5E7499C010008B501213A2000F05F
S21400183045FE032101230422002001F087FB00203F
S21400184018F01AFC0122214B4FF46070C3F84424B0
S21400185018F00CFB1E4B00F5D520D3F8F02000F254
S214001860FC4042F00102C3F8F020D3F8FC2042F01E
S2140018708072C3F8FC20174AA3F55D431A60164B26
S2140018800222B0FBF3F0154B01381861C3F8F020C4
S2140018904FF48072C3F804234FF06043104A0020D0
S2140018A0C3F8B02F0F4AC3F8802ED3F8002E42F4A8
S2140018B08072C3F8002EFF2283F82020D3F8002E73
S2140018C022F48072C3F8002E08BD00BF00D003507B
S2140018D000ED00E0FF030040F8590D00000004E0B2
S2140018E055CEACC5090001004FF06043D3F8802EFA
S2140018F030B5D20715D501240B4D8440D5F8FC2011
S21400190042F08072C5F8FC20D3F8002E2243C3F8BC
S214001910002E53F82020002AF0D003F820100020D4
S21400192030BD1120FCE700BF00ED00E02DE9FF41CF
S2140019300368374A0446934255D0364A93424FD1FD
S2140019402F20012100F0BAFD01230A2261792079B7
S21400195001F0FCFA01230A22E179A07901F0F6FAF7
S2140019600A2601272C4D4FF0300842F21001237949
S214001970627908FB035307FA02F25A50642004F017
S214001980EFFD41F210012379627908FB035307FA51
S21400199002F264205A5004F0E3FD013EE3D12068D1
S2140019A01B4B984221D10323C5F8903462792379E2
S2140019B043EA0243C5F89434E279A37943EA024342
S2140019C0C5F8983440F20113ADF80030E368694674
S2140019D00293A3680193237C8DF80C3001F07AFB08
S2140019E004B0BDE8F0812E20ABE70A4B9842E9D15F
S2140019F00323C5F8A0346279237943EA0243C5F885
S214001A00A434E279A37943EA0243C5F8A834D9E7B7
S214001A100000015A0080065000C0035038B5054645
S214001A2001F094FC044C012801D1013C00D138BDE2
S214001A30284601F071FBF6E7E193040010B5012299
S214001A4043780178847830209A40054B00FB0133B8
S214001A501CB942F210015A5010BD41F21001FAE7CB
S214001A6000C0035010B501224378017884783020F6
S214001A709A40054B00FB01331CB941F210015A5045
S214001A8010BD42F21001FAE700C003502DE9F04FF6
S214001A909A46564B85B01B7806460F461546DDF827
S214001AA03C909DF844B0DDF85080002B00F0978005
S214001AB0072A00F296800E9B002B00F09280B9F168
S214001AC0000F00F08E80129BB3F5006F00F3898044
S214001AD0012803D1109B002B00F08380444B03EBBE
S214001AE005131B7B002B7ED0424C1022002168463B
S214001AF01FF0E9FD04EB45141022A7BB394620462B
S214001B001FF0E1FD43F210036380BBF1000F03D129
S214001B10E37843F00303E370364A0E9B02EB451C62
S214001B20CCE90193129B6901581E9DF84C30C0F316
S214001B300A0003F003039B0643EA001E53582E4890
S214001B40012E00EA03004EEA0003CDF800A0535031
S214001B5017D0B8F1000F2ED19CF8023068F30413AA
S214001B608CF8023027E0002120461FF0ACFD4FF431
S214001B7044736380BBF1000FCED1E37843F03003AB
S214001B80C9E713230CF1100ECCF80C309CE80F00BC
S214001B908EE80F006FF00301DCF81C20109B61F349
S214001BA09F02012FCCF81C20CCF8143003D1CCF8BF
S214001BB01890CCF8043000270D4A290102EB0513D3
S214001BC042F80180159A28465A60694622469F6068
S214001BD05E7301F05DFC384605B0BDE8F08F07483F
S214001BE0FAE70748F8E70748F6E700BF5E2C00204C
S214001BF09C1500209C1400200F80FFF3028000F04C
S214001C00018000F0078000F038B5124B05461B78BF
S214001C10DBB1E0B118F00FFA0F4A00231146147B2F
S214001C2054B92B6001251A0101EB03131D738C5068
S214001C3018F007FA204638BD0133082B02F11002CF
S214001C40EDD118F0FEF90548F5E70548F3E7054835
S214001C50F1E700BF5E2C00209C150020048000F0F9
S214001C60028000F0018000F038B518F0E4F9002397
S214001C7005460B4A147B6CB90133082B02F110029F
S214001C80F8D101F0A7FB074B28461C7018F0D9F9CD
S214001C90204603E0284618F0D4F9034838BD00BFB4
S214001CA09C1500205E2C0020058000F00D4B10B522
S214001CB01B78044693B1072812D818F0BCF90A4BD3
S214001CC003EB04131A7B2AB100241C7318F0B9F92D
S214001CD0204610BD18F0B5F90448FAE70448F8E7BE
S214001CE00448F6E75E2C00209C150020068000F0D5
S214001CF0028000F0018000F0154B13B51868002331
S214001D0001908DF8043018F096F9124B1C7824B127
S214001D1018F097F9104802B010BD01221A7018F09A
S214001D2090F90E4B01A81C731C7783F82C4083F89F
S214001D303C4083F84C4083F85C4083F86C4083F862
S214001D407C4008238DF8073001F070FB2046E2E760
S214001D50C82B02005E2C0020038000F09C1500209B
S214001D600A4A08B512785AB107280BD8084A02EB77
S214001D7000131B7B43B1002101F04AFB002008BD85
S214001D800448FCE70448FAE70448F8E75E2C00201D
S214001D909C150020028000F0018000F0078000F013
S214001DA00A4A08B512785AB107280BD8084A02EB37
S214001DB000131B7B43B1012101F02AFB002008BD64
S214001DC00448FCE70448FAE70448F8E75E2C0020DD
S214001DD09C150020028000F0018000F0078000F0D3
S214001DE00A4A08B5127852B107280AD8084A02EB00
S214001DF000131B7B3BB101F097FB002008BD054894
S214001E00FCE70548FAE70548F8E700BF5E2C002027
S214001E109C150020028000F0018000F0078000F092
S214001E200D4B1B7893B1072812D889B10B4B03EBE7
S214001E3000131B7B73B10A4B1A6D012383401342B8
S214001E4014BF0123002300200B707047054870471D
S214001E5005487047054870475E2C00209C150020FA
S214001E6000000450028000F0018000F0078000F0BF
S214001E700B4A10B512780C4662B107280CD859B137
S214001E80084A02EB00131B7B43B101F05FFB207096
S214001E90002010BD0448FCE70448FAE70448F8E7C9
S214001EA05E2C00209C150020028000F0018000F0CF
S214001EB0078000F0184B2DE9F0411F6D5B6D1F4049
S214001EC000D5FEE701260025144CDFF8588037427F
S214001ED018D02368C8F85060A3B1A168284601311D
S214001EE06268A1609847637B012B0BD150B90C4BFD
S214001EF003EB45131A7B60F341021A731A7F60F3F3
S214001F0041021A770135082D4FEA460604F11004FF
S214001F10DDD1BDE8F08100BF000004509C15002014
S214001F209C1400200020045070B5044601250B4E7A
S214001F3004B970BD94FAA4F0B0FA80F005FA00F384
S214001F4006EB001224EA03045368002BF0D0117B42
S214001F5011B191689847EBE79847E9E71C1600200F
S214001F6008B5192000F0D2FD28B14FF00072074BDB
S214001F70C3F880211A601A2000F0C8FD28B14FF07F
S214001F808062024BC3F880211A6008BD00E100E0C1
S214001F9038B505460C4618F04EF80022044B03EB05
S214001FA005135C601A73BDE8384018F04AB800BFE5
S214001FB01C160020F8B504460D4617461E4618F0B7
S214001FC03AF81CB9052D18D0FF241FE0012C05D1C6
S214001FD0012D1FD0032DF7D104240EE0022C07D1CB
S214001FE0052D19D0072D19D0002DEDD1062404E0BB
S214001FF0032CE9D1022DE7D10924094904F1100385
S21400200001EB03110123C1E901760B7318F019F8EF
S2140020102046F8BD0324F0E70724EEE70824ECE7A3
S2140020201C160020F8B505460E46174618F003F8AD
S214002030134B2C46D3F8242405F0FC0122FA05F3B2
S214002040DB0712D500230133DBB2042B04D1FF24B7
S21400205017F0F7FF2046F8BDEC1804F003040C4414
S21400206022FA04FC1CF0010FEDD1FF2CF0D0012267
S214002070044B03EB0413C3E901671A73E8E700BFD8
S21400208000C003501C160020074BD3F82404D3F8D6
S214002090202403F50053104000F0553020F0502067
S2140020A0C3F82004FFF740BF00C00350074BD3F827
S2140020B02404D3F8202403F50053104000F0AA307F
S2140020C020F0A020C3F82004FFF72EBF00C0035066
S2140020D0024B1968024B18680EF08ABEFC0A0020F4
S2140020E01C0B002070B59400224605460E4620F0D4
S2140020F0ABF9431C0AD058B92246314628461FF091
S214002100B8FA0028034808BF002070BD0248FCE764
S2140021100248FAE710E000F021E000F024E000F0CA
S21400212010B5044620F088F9431C10D088B901F099
S214002130CFFA234620F003002044984201D1002025
S21400214010BD53F8042B0132F7D00348F8E70348D4
S214002150F6E70348F4E700BF0EE000F021E000F0E9
S21400216024E000F008B517F05FFF014B186008BDCB
S2140021700C1F0020014B186817F05ABF0C1F0020D8
S214002180044BD3F88420D206FBD4D3F88400C0F3E3
S214002190811070470040005038B5104B0546D3F804
S2140021A020310C4603F00303022B0BD0032B0DD07B
S2140021B0012B0FD1FFF748FA052305B1286004B1BB
S2140021C0236038BDFFF776FA0323F6E7FFF788FAB1
S2140021D00223F2E701230020EFE700BF0080005053
S2140021E073B50D4600210E4B0191D3F8804106468B
S2140021F004F00304012C09D0022C0CD00C460EB1BE
S214002200019B336005B12C6002B070BD01A8FFF7DA
S214002210C3FF0F24F3E7FFF763FA0190EFE700BF71
S2140022200080005038B5184B0546D3F824010C46FC
S21400223000F00700062823D8DFE800F0040A121A88
S2140022401E0E1600012305B1286004B1236038BDB8
S214002250FFF7FAF90523F6E7FFF7F6F90623F2E7A4
S214002260FFF728FA0323EEE7FFF724FA0423EAE74A
S214002270FFF736FA0223E6E717F0D1FC0723E2E77A
S21400228000231846DFE700BF0080005038B5104B2B
S2140022900546D3F840310C4603F00303022B0BD05F
S2140022A0032B0DD0012B0FD117F0BBFC092305B172
S2140022B0286004B1236038BDFFF716FA0823F6E756
S2140022C017F0B2FC0B23F2E701230020EFE700BF74
S2140022D00080005038B5144B0546D3F800020C4673
S2140022E000F0070004281BD8DFE800F003090D11F2
S2140022F01500012305B1286004B1236038BD17F02E
S21400230090FC0923F6E7FFF7EFF90823F2E717F04A
S2140023108BFC0B23EEE7FFF7B7F90E23800AE9E7FD
S21400232000231846E6E700BF0080005038B5104B83
S2140023300546D3F840320C4603F00303022B0BD0BD
S214002340032B0DD0012B0FD117F06BFC092305B121
S214002350286004B1236038BDFFF7C6F90823F6E706
S21400236017F062FC0B23F2E700231846EFE700BFE6
S2140023700080005038B5104B0546D3F860310C4647
S21400238003F00303022B0BD0032B0DD0012B0FD130
S21400239017F047FC092305B1286004B1236038BD57
S2140023A0FFF7A2F90823F6E717F03EFC0B23F2E747
S2140023B001230020EFE700BF0080005010B40D4C52
S2140023C00B46D4F8204204F00304012C0AD0022C59
S2140023D00CD008B1002101600BB100221A605DF834
S2140023E0044B70475DF8044BFFF7D6BE5DF8044B10
S2140023F0FFF74CBF0080005038B50C46054617F076
S21400240013FE054B9A6A54402C4054409C62BDE82B
S214002410384017F00DBE00BF00C00050B0F5207F5A
S2140024201FD009D8B0F5007F15D003D868B1B0F535
S214002430C07F0AD000200CE0B0F5607FFAD10B4BCD
S214002440D3F88000C0F3011003E0084B186FC0F308
S214002450033001307047054BD3F89000C0F304609A
S214002460F7E7024B186FC0F38020F2E700800050B9
S2140024704FF400320E4B014610B500209A66FFF767
S214002480CDFF484341F671320A490B4B884294BF50
S21400249000200120DC69DA639A6822F4401242EADE
S2140024A000529A60E20344BF0022DA6310BD00BF08
S2140024B000900050005A620200000350420910B516
S2140024C00FD0012A0FD00A4B0A4C022A18BF234607
S2140024D000F01F0049B103F58053012282401A60C4
S2140024E010BD1346F4E7044BF2E703F50053F4E798
S2140024F068800050608200506480005008B58020DC
S21400250017F0B4FC034B98429EBF4FF48032024B48
S2140025101A6708BD005A620200A000501FB50023CB
S214002520B0F5807F019377D028D8382800F09480C3
S2140025300BD82438092810D809280ED8DFE800F070
S214002540676767670D0D620D377D52285FD008D824
S2140025503D283BD03E2800F08480019805B05DF809
S21400256004FB8028F9D1414B1B6F03F00703013BA6
S214002570032BF2D8DFE803F044413F6CB0F5D06F90
S2140025805BD019D8B0F5A06F66D00AD8B0F5806FCA
S2140025903DD0B0F5906FE0D1002001A9FFF742FED4
S2140025A0DBE7B0F5B06F2DD0B0F5C06FD5D1002009
S2140025B001A9FFF76BFED0E7B0F5006FECD00AD8A4
S2140025C0B0F5E06F4DD0B0F5F06FC6D1002001A990
S2140025D0FFF7D0FEC1E7B0F5086FBED1234BD3F8A6
S2140025E0003103F00303022B2CD0032B2ED0012B3B
S2140025F030D1FFF75FF8032300E005230193ACE733
S2140026000223FBE7002001A9FFF7EAFDA5E700206B
S21400261001A9FFF7C1FDA0E702934FF0E0231B6975
S2140026205B0705D5FFF730F80C230393039BE5E71C
S21400263003A902A8FFF72AFEF8E7002001A9FFF782
S21400264049FE8AE7FFF750F80823D7E717F0E7FABE
S2140026500723D3E70123D1E7002001A9FFF7AEFE49
S2140026607BE7002001A9FFF761FE76E700800050B7
S2140026704FF40022034B5A66012203F580439A6208
S214002680704700BF0090005008B5FFF747FF0828C6
S21400269011D00938012802D94FF6FF7008BD4FF453
S2140026A00012064B5A6603F5D8335B6ADB07F3D590
S2140026B04FF4FA70F2E7024B1888EFE700900050EC
S2140026C0D80E0020F8B504468020FFF727FF032821
S2140026D000F087804FF40022424B02215A6645F6EE
S2140026E00E03414AC2F88030404B9962012103F53F
S2140026F080539962936DD903FCD4D4E900131B056B
S21400270043EA0163E17B94F820500B43217BE77E8C
S21400271043EA0143617B6D0143EA0133A17B43EA4F
S214002720811313619169D4E904031B0643EA8063AD
S21400273001F000410B43A17E94F823000B43217E59
S21400274043EA0143617E43EA01239361136AE66923
S21400275023F00D0394F8221043EA8703002E2DD1B0
S2140027601362966A94F8213045EA031326F033057F
S2140027702B4343F0010393621D4D1B4B9A6D35EAC4
S2140027800202FBD10222194DAA621A659A6D520006
S214002790FCD41A69A56822F4700242EA05521A614E
S2140027A04FF00042114B9A6119B9022203F580538B
S2140027B09A6278B901220F4B9A620BE0334343F0DA
S2140027C008031362936A23F0330303432B4343EA5D
S2140027D04103936294F824301BB1034B064AC3F8B6
S2140027E08020F8BD0090005000C0005000D000507F
S2140027F00300014000E00050F1A7FFFF1E4BFF283A
S21400280070B59E6A35D89A6D12F4803F18BF0121C4
S2140028101A4A18BF9162022191629B6DDC0303D5B0
S214002820154A936D9907FCD50222144B124D1A6572
S214002830AC6D14F08044FBD1114AAB6992F90020CC
S21400284023F47F03024423F47F4382F3080243EA1F
S214002850002343EA0243AB6131460220FFF7CCFD7A
S214002860AB6DDB0303D531460120FFF7C5FD2046DF
S21400287070BD2124FBE700BF00C0005000D0005010
S2140028805F2C0020014B93F9000070475F2C00205E
S21400289001221548154B816A9A62826D02F0030286
S2140028A0032AFAD102229A621A650F4A936D5B00D8
S2140028B0FCD40F48936D30EA0303FBD101220B4B87
S2140028C01A65A3F580539A6D9007FCD49A6D92070B
S2140028D0FCD50222054B1A65034A936D9B07FCD56F
S2140028E00320FFF789BD00BF00C0005000D0005095
S2140028F003000100F0B5D0E901434FF480061A4A00
S2140029004178057856664FF4D156022702F5B8325C
S2140029105662164E4F2977604FF0010728BF4F21A9
S21400292006F5805677601669F603FCD441EA052161
S21400293051611B01417B43EA04230B43017B43EABD
S21400294041039360C37B817B1B0143EA4113417CB7
S2140029500B43017C43EA41035360837C13B16FF45D
S214002960D1535362F0BD00BF0090005000100250DB
S214002970014B1880704700BFD80E0020014B18800E
S214002980704700BFD60E00204FF4001208B5184B53
S2140029905A660223174A5360936813F48033FBD1B8
S2140029A0012822D1FEF786FE134B984215D003F578
S2140029B0122303F5F863984213D0104B00EB800205
S2140029C0400AB3FBF0F3520A0A49CA620B630123BA
S2140029D04B620022074B5A6008BD45F67A13084A38
S2140029E0F2E745F61A03074AEEE75362F1E700BF3F
S2140029F0009000500040025000F04902646666668F
S214002A00D8B80500BBCF0500B0F5207F10B50C4642
S214002A1042D008D8B0F5007F33D003D888B1B0F5DF
S214002A20C07F0ED010BDB0F5607FFBD11F4A4C1E94
S214002A30D2F8803023F0300343EA0413C2F8803023
S214002A40F0E717F00BFA17F0D5FA4FF48031184B71
S214002A50164A1967136F013C23F4704343EA0433A4
S214002A601367FEF711FE0446FFF78AFBC0F102016A
S214002A70204617F0B9FA00F02DF8BDE81040FFF731
S214002A803DBD0A4A4C1ED2F8903023F0F85343EA74
S214002A900463C2F89030C5E7044A4C1E136F23F453
S214002AA0806343EA84231367BCE700BF00800050BE
S214002AB00090005008B50121022000F0F5F817F04C
S214002AC0CDF917F097FA4FF48032014B1A6708BD1C
S214002AD00090005008B54FF4C07017F0C7F9BDE875
S214002AE008400449884294BF012102214FF4207017
S214002AF0FFF78ABF80F0FA02034B5868C0F308005D
S214002B00003818BF0120704700ED00E0054B420971
S214002B1053F8223000F01F0023FA00F0C04300F004
S214002B200100704700E100E010B5224B70B94FF489
S214002B300031214A1860516602F598325268012A1F
S214002B4003D11E4AD2F800211A6010BD1B68002B64
S214002B50FBD01B4A5268012AF7D0184A8020C2F8D8
S214002B600031FFF7DBFC05281FD14FF4C070FFF7DC
S214002B7055FC0128044604D102214FF4C070FFF72B
S214002B8043FF07220F4B1A610122A3F580535A60B8
S214002B900B4A1369DB07FCD5012CD6D12146BDE8CC
S214002BA010404FF4C070FFF72FBF0122064B5A604B
S214002BB0CBE700BF101F00200090005000800050A0
S214002BC000C0015000E0015000D00150044A417896
S214002BD0536F23F4407343EA01235367704700BFE3
S214002BE00040005010B5044610B10020FFF79CFFCF
S214002BF0104A136943F00403136102F0FDFF17F057
S214002C0023FA0D4B0D4AC3F8202417F00DFA1FF0D7
S214002C1017FC17F00DFA17F018FA03F015F81CB9A0
S214002C20BDE81040FEF730BD0120BDE81040FFF7BC
S214002C307BBF00BF00ED00E000E003500000FF0F88
S214002C4010B5044610B10020FFF76EFF0E4A136958
S214002C5043F0040313610D4B0D4AC3F8202402F021
S214002C60CBFF17F0E1F91FF0EBFB17F0E1F902F0EC
S214002C70EBFF1CB9BDE81040FEF706BD0120BDE81D
S214002C801040FFF751BF00BF00ED00E000E003502A
S214002C900000FF0F034A0179D36E23F030030B4385
S214002CA0D366704700400050F8B504461C4BD3F876
S214002CB08420D106FBD4D3F88430C3F381139C421E
S214002CC02CD0FEF7C7FC012C064602D1214617F091
S214002CD08BF917F0A9F94FF00072124B07465A66A7
S214002CE0204617F0B9F94FF480630D4D621E9340ED
S214002CF02B676B6E9A0103D4D5F884309B060AD5F1
S214002D00384617F095F9022C08D13046BDE8F84051
S214002D10002117F069B9D5F88430EAE7F8BD00BF9E
S214002D20004000500060005010B50C4608B9FEF791
S214002D3091FC074B21461B783BB1064B984204D8C2
S214002D400120BDE81040FFF7AFBF0220F9E700BF43
S214002D50602C0020005A62020278034B01210020FA
S214002D601A70FFF7E1BF00BF602C00204FF0004252
S214002D7038B5264B26495A6601224A604AF6CD31B6
S214002D8003F50B235D6C1964154030BB9968C907C1
S214002D900BD4002401221F4B5A6015B11E4B1F4A4C
S214002DA01A641DF0BAFF204638BD1A498A601C4ACC
S214002DB0D96ACC0705D4904201D10724EAE701304E
S214002DC0F6E79042E5D1F8E70132DC6A14F0080431
S214002DD006D08A42F8D10724DFE700221049F4E73C
S214002DE08A42F8D020220B4B0B495A620122A3F5E7
S214002DF080539A6023460A4A486A800603D4934260
S214002E00E9D00133F8E79342C7D1E4E700900050D9
S214002E100050095000600950004009503254FFFF2E
S214002E2040420F004FF0004238B5174B174C5A6619
S214002E30012203F50C235A604AF6CD33656C2364F1
S214002E40437893401343124AD363C3788178A268C9
S214002E509B0043EA011322F074021343A360027935
S214002E60837943EA022323614279C37943EA022342
S214002E7063610078FFF77AFFEB0744BF054B2364D6
S214002E801DF04BFF012038BD009000500040095057
S214002E90004000503254FFFF072A2DE9F041154646
S214002EA098464FF0030401F003072DD89600B4406F
S214002EB000FA06F221461C4817F0CFF821461B48B8
S214002EC007FA06F217F0C9F8194B1A499DF81800C8
S214002ED0B8F1000F18BF1946012303FA05F50D6077
S214002EE0154B1649002818BF0B461D60144B9DF85D
S214002EF01C00C3F82054103103F22443002818BFE6
S214002F000B461D60BDE8F081A2F10806B600B4408D
S214002F1000FA06F221460B4817F09FF821460A48A9
S214002F2007FA06F2CEE700BF00C4035008C40350F9
S214002F3010D4035010E4035014E4035014D4035088
S214002F4000E0035004C403500CC40350F8B5044614
S214002F500D461F4616464AB101238B403021184ABB
S214002F6001FB0022F7B141F21001535004EB440379
S214002F70072D4FF00F014FEA031316D8A80006FAE4
S214002F8000F281400F48184417F067F84EB9012345
S214002F9030210B4AAB4001FB042277B141F210010D
S214002FA05350F8BD42F21001DFE7A5F1080080009B
S214002FB006FA00F281400448E5E742F21001EFE726
S214002FC000C0035004C003500CC00350104B014017
S214002FD0D3F8302422EA0002C3F83024D3F8302491
S214002FE01143C3F83014D3F82C240243C3F82C241E
S214002FF0084AD36E03F03003202B1FBFD36E23F096
S214003000300343F01003D366034BC3F82004704725
S21400301000C003500040005000E0035038B514468E
S2140030201D46032283F00103FFF790FF012004F101
S2140030301001884005FA01F1FFF7C8FF9DF810104F
S214003040034B044A002918BF1346186038BD00BF5A
S21400305024E4035024D40350F8B505460E4614461F
S2140030605AB303F00307836823F44073836016F0B3
S214003070DBFFAA6882EA072303F440735340AB6081
S21400308016F0D6FF36B9104B9D4217D12E2016F0FB
S214003090EDFE0646AB680D4BDA5D62430DD0A2EB43
S2140030A0C403013B3344B3FBF2F3AA68013B920727
S2140030B002D5002B08BF0123AB61F8BD044B9D422F
S2140030C0E8D12F20E3E700BF0000015AED2B0200F5
S2140030D00080065038B500230E4A036400F50053FE
S2140030E0DA634A7804460D4600F108037AB903F518
S2140030F0805302221A602046D5E901122B7BFFF787
S214003100ABFF20462978BDE8384016F0B6BF03F579
S2140031100053EEE7FFFF1F00874B70B5984219D0AB
S214003120864B984240F00581854B9968C26B12F435
S214003130C06F15D091050FD5FD225A7009221A705E
S2140031400022026493F90110012900D15A7093F904
S214003150010070BD7B4BE8E75605EFD5FE22ECE795
S2140031601C78082C00F2E180DFE814F009001F004C
S2140031704500530070007E009C00A700D6004C88D7
S2140031800A88E5060AD5120A02F0060242F0F002A4
S214003190012119704263C1600120DAE702F0FE02E5
S2140031A0A10748BF42F00102F2E7160608D58021C3
S2140031B000F50052D1634FF608721A80022318E019
S2140031C05506E9D5402400F50052D4634A88D40653
S2140031D004D502221A700B784363DDE796076AD59A
S2140031E007221A701B7901EBC3031B89012BD3D16D
S2140031F00823C360D0E71506D9D45406CCD540249E
S21400320000F50052D4634A88920754D503221A70F8
S2140032108CE74C880A88E60643BF120A02F00602CC
S21400322042F0F00202F0FE02650709D51C7942F072
S214003230010201EBC4010989012904BF0821C1600C
S214003240042119700123C3604263A5E71406AED4B7
S2140032505206A1D5402400F50052D4634A8856078A
S21400326029D507221A7097E71A795D8801EBC20400
S2140032702689AE420FD800240132D2B21A715C8081
S2140032804C886507C2D4E40702D4012A7FF64EAF05
S21400329008221A7092E76268691C5980525D426380
S2140032A00622DFE7160682D455067FF575AF402462
S2140032B000F50052D4630522A9E794067FF56CAFAB
S2140032C0456A214C46691A793440B4F5003F04BF7C
S2140032D0466A4FF4005601EBC20100F500540A8915
S2140032E008BFE6632026E6635C88A24281BF496881
S2140032F0661C5E800D5559888A42C9D90424012A65
S214003300C46004D0013A914201D10822C2601A7802
S214003310092A3FF415AF3FE7D2057FF53DAF4FF4DE
S214003320807100F50052D16308E74FF609321A8023
S21400333006E76FF003000CE70000015A0080065015
S214003340201F0020141F0020200002001C4B10B479
S214003350984207D01B4B98422ED06FF003005DF8C2
S214003360044B7047184B0269D20744BF2022C26044
S2140033704A88940702D50C89002CEED0520702D555
S2140033800A8A002AE9D04FF480721A6000229960F7
S2140033901A71C023C3604369DB050FD4202200F5F1
S2140033A00053DA63094A5DF8044BDA63036C43F4AE
S2140033B0FC630364FFF7B0BE054BD4E7436AEAE755
S2140033C00000015A00800650141F0020FFFF1F0057
S2140033D0201F00204FF400120B4B10B5C3F88020BE
S2140033E0BFF34F8FBFF36F8F0024FF22074B21469A
S2140033F05C6520209A625C60FFF760F82146BDE8B5
S21400340010402120FFF75AB800E100E00000045009
S214003410044A054B002908BF1346012282401A6061
S214003420704700BF401004504020045010B50121E2
S21400343004462020FFF742F801212120FFF73EF83E
S2140034400122114B5A60227812069A606178A2789F
S21400345042EA01429A61FF229A6200229A631A6443
S2140034604FF000425A654FF0FF324FF4001103F55B
S21400347000531A65054AC2F88011E3781B01DBB2D7
S21400348082F81533116010BD0000045000E100E022
S214003490F8B50125C3B2DFF888C0D1F800E09D403A
S2140034A08F7ACB7A0C46097BCCF850500CF5005C32
S2140034B04CF820E04FF0300E184E1B050EFB006057
S2140034C094F80DC043EA074343EA415322F003024F
S2140034D0C0F860C0C365026716F0ADFD736D2B4380
S2140034E07365237A13B1336C2B433364637A13B159
S2140034F0B36B2B43B3632279A37943EA0243084AAA
S21400350093616179E37943EA014306498B61034B92
S21400351055639D64BDE8F84016F093BD0000045066
S214003520002004500010045010B50124C0B284409E
S21400353016F081FD044B5A6D22EA04025A659C621D
S214003540BDE8104016F07DBD0000045010B5012403
S214003550C0B2844016F06FFD074BDA6A224208D1EB
S2140035605B6B9C430CBF0124002416F06AFD2046CA
S21400357010BD0024F9E700BF000004504FF40032ED
S214003580054B9A6641F6713203F51C33DA63012265
S21400359003F50053DA6070470090005041F6713230
S2140035A00121064BDA6303F50052D1600022DA638C
S2140035B04FF40032A3F518339A66704700000350A4
S2140035C0CB784A7810B55B010C7843EA82030A7917
S2140035D0234343EA02130C22424302F1B042136330
S2140035E0012C02BF8A78024B43F8202010BD00BF92
S2140035F0E880035008B54FF0B0435A686AB958B12E
S2140036005B680BB116F043FD01210D4B596016F0B7
S2140036103EFD4FF0B043D96008BD5B680BB116F0B5
S21400362036FD0028F0D116F032FD4FF0B0430222EE
S214003630DA6016F02CFD0122024B5A60ECE700BF60
S21400364000100058002000584FF0B0414B6810B5ED
S2140036500BB116F01CFD01220B4BC4785A60837820
S214003660934043EA840344782343047943EA0413EB
S214003670447943EAC4038B60044B5A600378C3F171
S2140036800203CB6010BD00BF002000580010005899
S2140036904FF48032064B5A6603F5E6235B69C3F3A4
S2140036A08512827003F03F021B0B42700370704756
S2140036B000900050014B986CD96C70470080E00F6A
S2140036C0024B1868C0F30740704700BF0080E00F49
S2140036D00120034B9B680A3303F01F039840704792
S2140036E00080E00F70B5054616461C4621B94FF41B
S2140036F0207016F0BBFB0146402C1BD003D8DCB173
S214003700202C1BD070BD602CFCD1042303FB06F2DA
S214003710530803EB4113B3FBF2F3094A203B02EADA
S214003720C303AA6822F06002AA60AA681443AC60C9
S214003730EB61E7E70623E9E71023E7E70823E5E779
S214003740F8FF7F00012200F580535A6040F6AA6316
S21400375041F20502436100230B498360C365C260E2
S21400376000F500520361C361C36491640749836531
S214003770884203D103650023436502E0044988427A
S214003780F8D0012353607047FFFF010000C00550CA
S2140037900000065070B50D46FFF7D4FF012300F574
S2140037A080567360AB7C04461BB1836843F080434D
S2140037B08360EB7C5BB1354A2B7D944245D1A2F504
S2140037C01032C2F88C31E36D43F08003E3652A8A39
S2140037D06B7B20461343EA891343E3602B7BD5E9D2
S2140037E00112FFF77FFF6B7D1BB1A36843F48033A4
S2140037F0A360AB7D1BB1A36843F40043A360EB7DDD
S2140038002A7E1B07120502F4E00203F0E04313438E
S214003810A365697E1D4A8B1E012B1D4B1FD8944243
S2140038201BD002F5804294420CBF01224FF0FF32BB
S21400383003EB4213022041F21C620329985020D168
S2140038400423F3652B78636170BD124A944204BF6B
S214003850A2F52032C2F89C31B5E70022E8E7944290
S2140038600DD00C4A94420CBF01224FF0FF3203EBFE
S2140038704213022042F21C6201299850DFE7002220
S214003880F5E7042204F50053DA65DBE700C00550CF
S21400389000C003500000065038B50446054D1DF024
S2140038A060FA0FCC0FC594E8030085E803000020FB
S2140038B038BD00BF2C1F002047F6FF739A42F0B5B4
S2140038C06FD002296FD8394B5B5C012B6BD8384D13
S2140038D0DF0005EBC30415F83330A178012B13D1B4
S2140038E00025E078401AA84202D80844C0B2F0BDCD
S2140038F0431B6668A0EB530336F913609642D4BFA9
S2140039001D4603F1FF30EEE760680028EFD0B0F9FF
S2140039100040944204DBB0F902409442B8BF14461B
S21400392083883D44FF2B19BFC8224FF0280CB0F9FE
S2140039300620B0F908C0A2EB04030CBF012600263F
S21400394093FBFCF333446E781BB29E4201DD002BE2
S21400395001DA731E1BB24FF47A7C01339BB2071D4B
S2140039605D1E2DB24FEAC50E00EBC505EA88AD68B0
S2140039709E4214FB025222EAE27202F15C02B2FBA1
S214003980FCF204DD37F8335001339542E8D200EB01
S2140039900E039888904228BF1046884238BF0846D3
S2140039A0A4E7FF20A3E70020A1E700BFF12B020059
S2140039B02C1F00200229F0B555D82C4B585C012846
S2140039C051D82B4C04EBC00114F830004B6801288A
S2140039D00FD1C8788C78904294BFC4EB0001C4EB3A
S2140039E00201001BCAB28242C8BF002233F912008D
S2140039F0F0BD002B37D08878904202D3B3F902008E
S214003A00F6E7CC78B3F900009442F1D94C7899885F
S214003A10013CA1F1FF06714203F10405E4B27141D5
S214003A2003F10C07CEB2B44216D805EBC1014FF431
S214003A307A756A43B1F902404968521A04EBD471A8
S214003A4002EB610292FBF4F29042D1DBB3F9020082
S214003A509042CDDC10B2CBE737F831C04E1C94450F
S214003A60E3D33146DEE70348C2E700BFF12B02008E
S214003A702C1F00200080FFFF08B50448FFF70CFF4E
S214003A80BDE8084001201DF070B900BFF42B02000D
S214003A9000487047DA0E00207FB50222084B09491D
S214003AA0CDE901234FF00073CDE90313052301A9E7
S214003AB04FF0FF3005931DF08DF907B05DF804FB5D
S214003AC0006A1800000204001B0603F0706300F092
S214003AD00F000902034301F47061120402F470221D
S214003AE00B431343014A1360704700BF0020025C7B
S214003AF060B5054619B10139B1F5806F0FD2094E90
S214003B00F06810F48030FBD143EA012312072B4300
S214003B1002F08052134343F00043736060BD0120FF
S214003B20FCE700BF0020025C0122054B9A60DA68C1
S214003B30D203FCD4D86820F00F000004000C7047B5
S214003B400020025C014B1868704700BF0040025C12
S214003B50014B5868704700BF0010025C014B186BA1
S214003B60704700BF0010025C014B1868704700BF2A
S214003B700010025C014B9860704700BF0010025CAA
S214003B80014B1864704700BF0010025C014B58647C
S214003B90704700BF0010025C014B5863704700BFBF
S214003BA00010025C0022014B1A6070470010025C95
S214003BB0024A136843F00103136070470010025C6A
S214003BC0024A136823F00103136070470010025C7A
S214003BD043F20402014B1A60704700BF0010025CFB
S214003BE0024A136843F03003136070470010025C0B
S214003BF0044B1A6842F480721A601A6822F48072C3
S214003C001A6070470010025C024A136843F480632F
S214003C10136070470010025C034A136823F4702395
S214003C2043EA0043136070470010025C044B1A69B5
S214003C3002605A6942609A698260DB69C3607047B5
S214003C400010025C0268044B1A6142685A6182687E
S214003C509A61C268DA6170470010025C024B1A6B08
S214003C60D207FCD4186270470010025C0322024B95
S214003C70186019615A6370470000025C82B01FB575
S214003C8007930A9B04AC8B4228BF0B4604E9070047
S214003C901048D100079948BF03330160099948BF0F
S214003CA023F0030323F0704301F0E041194341F091
S214003CB000518160002102F0E042019C1A4342F06C
S214003CC00052C16004618261416304B0BDE81040E7
S214003CD002B070470000025C3F22034B1A631022BA
S214003CE0DA6103229A6370470000025C024AD36BD3
S214003CF09B07FCD4704700BF0000025C044B9B6A25
S214003D0013F0240F14BF012000208000704700BF6E
S214003D100000025C08B5FFF7F1FF064BDB6B23F4EF
S214003D207F4323F0EF0303431EBF0122024BC3F879
S214003D30FC2F08BD0000025C00F0FF3F4368182B14
S214003D400AD0202B1DD0102B2BD1174BD3F80434C0
S214003D50DB010AD401207047134BD3F804349A01D0
S214003D60F8D50B6843F008030B6003680F4A9342CC
S214003D7010D10B6843F040030B6000234360002023
S214003D807047094BD3F804345B01E3D50B6843F066
S214003D900403E9E7064A9342F1D10B6843F0800337
S214003DA0EAE70720704700BF0000025C622C002094
S214003DB0612C002013B5084CD4F80444E40508D55B
S214003DC0009313460A460146002000F01BF802B096
S214003DD010BD0120FBE700BF0000025C13B5084CD5
S214003DE0D4F80444E40508D5009313460A46014671
S214003DF0002000F02BF802B010BD0120FBE700BF4A
S214003E000000025CF0B516465A688DB0102A0D46C2
S214003E10129F15D17A68102A12D10A4A09AC07CA2D
S214003E2084E8070022462946CDE90547CDE9034444
S214003E30CDE901440448009616F03DFA0DB0F0BDF9
S214003E400720FBE7782C020030000100F0B516468C
S214003E505A688DB0102A0D46129F15D17A68102A1E
S214003E6012D10A4A09AC07CA84E807002246294646
S214003E70CDE90574CDE90344CDE901440448009634
S214003E8016F019FA0DB0F0BD0720FBE7782C0200FB
S214003E901000010070B598B0002843D02C4C08AD37
S214003EA00FCC0FC50FCC0FC50FCC0FC594E80F0075
S214003EB085E80F006D4604AE04F1100320340FCBE6
S214003EC085E80F0094E80F0086E80F00FFF790FEE5
S214003ED00420FFF7A1FEFFF77BFE3046FFF7B2FE99
S214003EE0002408AE56F8040B0134FFF7B7FE102C7A
S214003EF0F8D1FFF72DFE0328FBD90024FFF752FE6A
S214003F002646FFF71FFE55F8043B01365840042EA0
S214003F1044EA0004F5D12CB1012206200D4B1A709C
S214003F2018B070BDFFF764FE0820FFF723FE0020E0
S214003F30FFF726FE0720FFF729FE4FF40070FFF775
S214003F402BFE0820FFF768FEFFF732FE0020E7E7AB
S214003F50582D0200642C002008B5FFF749FE012208
S214003F60014B1A7008BD00BF632C00201FB516F069
S214003F70FFFA044630B1012206240D4B1A70204683
S214003F8004B010BDFFF7DEFD0090FFF7DBFD0190EB
S214003F90FFF7D8FD0290FFF7D5FD03906846FFF7C0
S214003FA051FEFFF7D9FFFFF71BFEFFF72DFEE6E7F2
S214003FB0642C002006289ABF014B185C002070472E
S214003FC0B82D020030B5154B87B00293144B039002
S214003FD0049346F611030D46059300F077F914286E
S214003FE0044616D1684616F06DFB4FF0A843032230
S214003FF002A95A6319601D619A63DA6B9207FCD1B5
S214004000142C02D1684616F06BFB00F093F90446B8
S21400401001E00028E9D0204607B030BD441F00204C
S214004020040000202DE9F04FB1B005468C469E46B0
S214004030E8466F4EDDF8EC90409C06F1100A4746C5
S21400404030687168083603C75645B846F7D13E9BB8
S21400405003EB0208C8F1000A0AF00F0AB9F1000FD4
S21400406000F09D80C9F1000707F00F070121DDF879
S214004070FCB044F00050C4F11006CDF810B0059125
S2140040800690300200F4F85040F021000790B9F195
S214004090000F40F08680CDF820D047F00050002D6D
S2140040A000F08480099121210A9041EA07210B91B2
S2140040B042F00050CDF830C03D9B08A94FEA0A2CCC
S2140040C00D910E904CF041000F901093002A75D180
S2140040D03E9B119143F0005312933C9B1390149314
S2140040E010AB1593434B444A169340F611031793AF
S2140040F0424B0021002D08BF1346189314AB1993AA
S2140041003F4B10221A9311231B931CAB18461DF02D
S214004110DAFA01221D92002246F0804603461E96D9
S214004120239205B9EB46102CCDF880B024AE4BD1C7
S2140041300123224600213046219322941DF0C3FA23
S21400414020AB002125938F4218BF334647F08042AC
S21400415026923A9A2CA828922993B2FA82F35B09FF
S21400416049EA837310222B912A931DF0ACFAB9F119
S214004170000F00D028AED04448F080432CA918A8E1
S2140041802D962E93FFF71EFF30B92DB90346A34296
S21400419025D1002818BF2C2031B0BDE8F08F10279D
S2140041A064E7CDF820E049F0005078E7002C3FF4B3
S2140041B079AF04A9099101210A9076E73E9B0CAAE3
S2140041C011924120129388E7102200213046219355
S2140041D022941DF078FA002CB2D10123B1E703F146
S2140041E0C0026A4412F8C02C01331043CFE700BF68
S2140041F0BF2D020010000020D42D0200D82D020092
S21400420004000020F0B5C0299FB0DDE9244557D052
S214004210B1F5807F04D0802948D029201FB0F0BD9A
S21400422001265CB140F234470294102403960494AD
S214004230212401970594069502AC0AE040F2144743
S21400424002941024039604942124059401240197D3
S2140042500695079401251024089409950A922122B0
S2140042600B950C940D92174A0AAD0E92164A0F95AE
S214004270109242F61102119212931395149415920D
S21400428001AA1692D3B112AB1793042318931123E5
S214004290199316AB1A901B9340F61103C9081C918C
S2140042A01AA806A91D93FFF78DFEB7E7012614B9D5
S2140042B04FF48267C4E74FF48667B5E70EABE3E7D3
S2140042C00F20ABE7D02D02001000001038B5164BBB
S2140042D05A6E42F004025A66D3F8802242F0010277
S2140042E0C3F88022114B5B68C3F3080343B14FF059
S2140042F0A842D36B13F0430FFBD11424204638BDDD
S2140043004FF0A843DC6B14F04304FBD1084D2B6838
S2140043101BB90421284602F059FB2B68013343F0F1
S21400432000432B60EAE700BF0080005000ED00E08D
S214004330441F0020014B00205B68704700ED00E042
S2140043404FF40052034B00209A660322C3F8602203
S214004350704700BF009000504FF40052034B0020FF
S2140043609A660322C3F86022704700BF00A0005080
S214004370012300F01F02A0F506200949A0F55060B1
S2140043804009934051F820201A4341F8202005495F
S21400439051F8202022EA030241F82020704700BF8F
S2140043A05C1F0020481F00200121A0F506230E4AAE
S2140043B0A3F550635B0900F01F00814052F823000C
S2140043C0014342F823100949D1E9003003448868C4
S2140043D00344C868096903445B1802BFC2E9003396
S2140043E0C2E9023313617047481F00205C1F00209B
S2140043F02DE9F04FA9B003921D4604460822339ECD
S214004400CDE90401414021FA02F34B40980702F13E
S214004410080218BF9B00202A1C44F4D18123B4FB59
S214004420F3F303EBC313E41A734B04F506241B786B
S21400443004F55064002B3ED1FDF74AFE074620B136
S2140044406FF0910029B0BDE8F08F0146402208A821
S2140044501DF039F94022394618A81DF034F9DFF866
S214004460B481DFF8B491C3460BF10F0ACDF800A073
S214004470102208A95B46D9F800001CF001FA0022B9
S214004480014608F1100808AF914246D1CDF800A0C9
S2140044905B461022D9F8000018A91CF0FAF94FF074
S2140044A0000A834618AFD34541D1544B9845DAD11C
S2140044B00122514B1A704FF0810A4FF00008DFF8C6
S2140044C05CB1A4F50627A7F550635B095BF82320CB
S2140044D004F01F01CA40D2073DD4494A52F823309F
S2140044E0CB40DB072AD5B8F1000F08BFA0468123D2
S2140044F0A7F6FF47B7FBF3F303EBC313FF1A07F563
S2140045000624BAF1010A04F55064DAD1039BBBB164
S214004510B8F1000F14D0444619E057F8040BCDE963
S2140045200612FFF725FF079A06990132ACE757F8FF
S214004530040BFFF739FF0AF1010AB4E7039B13B92E
S2140045406FF08B007EE7B8F1000F18BF4446349B2F
S21400455000201C6076E7329B13B10023329A13606A
S2140045600EB1002333601023DFF8AC9000932A4688
S21400457000232146D9F800000CF0ACFD60BB329950
S2140045802A68204BC9B99A4206D02146D9F80000BD
S2140045900CF038FE0028D3D1D5E90223DDE904105B
S2140045A0834208BF8A42A2D1039B002BCFD06B6800
S2140045B0012BCCD16FF0840044E7102032999A4248
S2140045C00860E2D1002EE7D033462146D9F8000035
S2140045D018AA0CF0D3FD48B10B4B9842D5D00B4B24
S2140045E09842D2D00A4B9842D6D029E7329A3368FE
S2140045F012689B1A3360CFE7652C00200071080014
S214004600481F0020105D175EFFDF00F011E000F08D
S214004610FEDF00F0006D08001C0B00205C1F002071
S2140046202DE9F04F87B08246894698461646DDF853
S21400463040B02AB1002B4FD040F26C739A424ED84D
S214004640BBF1010F4ED8002406F1100739460120B1
S214004650059416F0DAFB0546002846D021463A4671
S2140046601DF031F805ABCDE9014300942B4601223D
S21400467050464946FFF7BCFE044680B110F18C0F49
S21400468008BF6FF08D043A46002128461DF01BF83F
S214004690284616F0CAFB204607B0BDE8F08F144B3C
S2140046A0C5E902A92B60C5F804B02EB132464146D2
S2140046B005F110001CF05BFF059E0E483B462A469F
S2140046C0314600680CF06EFC18B93046FFF750FE15
S2140046D0D9E76FF09104D6E76FF08604DBE76FF05A
S2140046E09104D8E76FF08504D5E76FF08C04D2E725
S2140046F0105D175E1C0B00202DE9F0438DB081463F
S214004700DDE914780E4615461C469BB1B8F1000F3D
S21400471005D16FF0860630460DB0BDE8F083002F59
S214004720F7D0B7F1005FF4D3C3F1005303F50043AD
S2140047309F42EED81022002108A81CF0C4FF0022D9
S21400474007AB029305AB019306AB31460093484690
S21400475008ABCDE90522FFF74BFE06460028DAD166
S214004760059BA4B1AB4215D853EA0504D1D1069BEC
S2140047700B48C8F8004000943A46079900682B4456
S2140047800CF0A8FC002818BF6FF09106C3E7AB42F8
S214004790EDD2BEE75B1B9C4228BF1C46E7E700BF86
S2140047A01C0B002030B58DB00C46054610220021AB
S2140047B008A81CF088FF002207AB029305AB019304
S2140047C006AB21460093284608ABCDE90522FFF745
S2140047D00FFE0446D8B9099B012B1BD0079D104B32
S2140047E0294618680CF00EFDB8B90122A5F5062377
S2140047F00C49A3F550635B0905F01F00824051F891
S21400480023004240284641F82320FFF7CDFD2046EE
S2140048100DB030BD6FF08404F9E76FF09104F6E751
S2140048201C0B00205C1F00202DE9F04F89B00746C6
S2140048300E46FFF799F9C00709D40424012015F0A5
S214004840A4FE80B3013CF9D16FF0920028E010225C
S21400485000210DEB02001CF036FF04A8FFF7E6F976
S214004860049B002BE9D0059B002BE6D0069B002B73
S214004870E3D0079B002BE0D00025DFF8808008F10E
S2140048800409B54219D34FF48A74FFF767F900F0AC
S2140048900E03062B2DD1C30501D5FFF791F9002095
S2140048A009B0BDE8F08FFFF759F910F00E03FAD003
S2140048B0022BF8D04105DFD5C4E7FFF749F9A6EB90
S2140048C0050A8400544528BF544699E8030000238F
S2140048D08DE80300CDE9054307EB050BCDF810B0D6
S2140048E0029404AAD8F8003007CA15F0BAFD254489
S2140048F0C7E724FA03F3DA07A6D5C6E7DC2D0200DD
S2140049002DE9F04389B00E4615461F46DDF848806F
S21400491020B96FF0860009B0BDE8F0830029F8D012
S214004920002AF6D0B8F1000FF3D0038803F44F4204
S214004930B2F5824F02D06FF08500ECE7DAB2122AA9
S21400494001D0172AF7D123F0FF03B3F5E24F41D188
S2140049504488C8F8004044B9EB00B3F5807FC8F837
S2140049600030E8D1122A0DD108E0E31DB5EBD30FD5
S214004970CFD1B4F5807FDED1122A29D1354B1C6801
S2140049801B691C440023194670192C4414F801CDE9
S21400499010F8012D1143B2EB0C020CBF4FF0FF3C98
S2140049A04FF0000C86420CEA030343EA0203EDD103
S2140049B00029AED0002BACDA109B9D4246D82A4682
S2140049C0314638461CF0D3FD119B00201D60A2E73F
S2140049D00024D7E73378042B9BD16B1EDB005B08E3
S2140049E0B3F5807FC8F80030A5D1122A06F101037E
S2140049F018BF4FF000094FF0400205934FF0000338
S214004A000ABF144C4C46D4F80C90CDE90623FFF7A9
S214004A1097FC00287FF47FAFCDF80C90D8F80030D4
S214004A200733DB08029308AB13E903008DE80300A5
S214004A30059B94E8070015F065FD0446FFF78CFC1F
S214004A4000287FF468AF002CB6D062E76FF08900CC
S214004A5061E700BF842C02000388B3F5105F0ED117
S214004A604388DB08103B102B0CD8084A22FA03F3C5
S214004A7013F0010F14BF00206FF0860070476FF030
S214004A80850070476FF08600704700BF0101010087
S214004A902DE9F041069F0C461646054610B309B3AD
S214004AA002B9FBB96288B3EBD20F4FEAD20819D32A
S214004AB04C22002128461CF006FE0D4B27F47E12E1
S214004AC09A4212D12046FFF7C7FF044638B942463D
S214004AD03146281D1CF04BFDC5F824802F6020466B
S214004AE0BDE8F0816FF08604F9E76FF08504F6E71D
S214004AF00002C0032DE9F0410E4614460546002884
S214004B0040D000293ED092B10368214823F47E139A
S214004B1083423AD1AF6BF7B1C7F1100807F128000E
S214004B204245284406D227441CF021FDAF630020EE
S214004B30BDE8F08142461CF01AFD1022103C3C19DC
S214004B40AA63F4D0284605F1280115F011FE0028C6
S214004B50EED14644A863102C0CD9671E27F00F0729
S214004B603A463146284615F003FE0028E0D1E41BFD
S214004B70DDD03E442246314605F128001CF0F7FC05
S214004B80AC63D4E76FF08600D2E76FF08800CFE71B
S214004B900002C0032DE9F04388461F4605468BB049
S214004BA070B169B163B10368234923F47E1088426B
S214004BB03ED113F47C1FC3F3054604D0102E03D950
S214004BC06FF086042AE0102696422BD8FFF7B8FB33
S214004BD0044618BBAB6B05F12802CDE901236B6ACE
S214004BE02A1DCDE904231023CDE9083007AB1A4669
S214004BF00390069005F13C0901A904A8CDF81C9085
S214004C00FFF7ECF80546FFF7A7FB04466DB928B991
S214004C103246494640461CF0AAFC3E6020460BB091
S214004C20BDE8F0836FF08904F8E76FF09204F5E7CB
S214004C306FF08504F2E700BF0002C00307B56B46BD
S214004C40054A1068516803C36846FEF7EBF8002073
S214004C5003B05DF804FB00BFE82D020013B5002486
S214004C60064A6846536F43F00103536700948DF875
S214004C700440FEF70FF8204602B010BD004000507A
S214004C8030B58BB06C46174D0FCD0FC40FCD0FC48B
S214004C9095E8030084E80300134BD3F84C21120375
S214004CA01CD5A3F5FE431C884FF6FF739C4208BF35
S214004CB079248DF81940FDF7E5FD204480F30800BF
S214004CC08DF818000948FCF7FBFC6846FDF7FAFC6F
S214004CD03220FDF753FE00200BB030BDD3F8504114
S214004CE0E4B2E6E7F02D02000080E00F00F0490293
S214004CF030B5094D87B001AC0FCD0FC42B6801A8A5
S214004D0023602A238DF80530FDF7F4FD3220FDF7E9
S214004D102FFE002007B030BD182E02006FF00403EF
S214004D20502110B50A480B4C13F0800F03F1010216
S214004D3007D12344402A83F800131346F4D10020F9
S214004D4010BD03F00F03043B034419761346EBE74C
S214004D5000ED00E000E100E010B5044615F064F94F
S214004D60024B1C6015F064F9002010BD701F002077
S214004D7010B515F059F9034B1C6815F059F9204683
S214004D8010BD00BF701F0020034B022218680023CE
S214004D908068194613F0DABB0C0C002030B51446B8
S214004DA0054687B0104615F0C0FD6369024683428B
S214004DB03CBFD4E903315B181B1A7BB10F4904943E
S214004DC003910021CDE90131012300932846D4E95F
S214004DD0001314F0F4FF002007B030BD0122627605
S214004DE094F82D20002AF6D084F835301321E36994
S214004DF0204698472046636A9847ECE79D4D00009A
S214004E002DE9F04788B004460F461646984615F03A
S214004E1012F98146002E7AD0237E03F0FF02002B83
S214004E2000F0A280204615F080FD6569A84205D1F5
S214004E30637ED4E9033213445D1B01E0F9D9451BB8
S214004E40B54228BF354615F0F6F894F82D30824660
S214004E50002B6DD12A46384661691CF088FB6369D1
S214004E602E462B44636121E0037803F0FD011129EF
S214004E705BD1216B814205D1A3F111014B424B411D
S214004E8084F83430013E6369216B01328B4203F1B2
S214004E90010308BF2363636195426069E4D1D4E9E6
S214004EA00323216B1344994200D122630025D4E9E1
S214004EB0032361691344994208BF6261207A6576CC
S214004EC0FCF74EFF204615F030FD6369834232D171
S214004ED0257694F82D30E568656103B12563204694
S214004EE0636A9847214B0494039300230293236933
S214004EF02A4601930123009363682168207A14F000
S214004F005EFF207AFCF74CFF504615F09AF84846AC
S214004F10C8F8006015F095F8D8F80030002B0CBFE4
S214004F201B20002008B0BDE8F08707F8013BAAE781
S214004F302E460022B0E70123207A23760DF11E01CB
S214004F40FCF796FF9DF81E30002BDAD00DF11F01FE
S214004F50207AFCF765FF9DF81F100029D1D1224664
S214004F60207AFFF71BFFCCE71646D0E79D4D0000E2
S214004F70002807DB01234109034A00F01F00834095
S214004F8042F82130704700BF00E100E0002808DB4F
S214004F9001224309034900F01F008240603341F8B4
S214004FA02320704700E100E070B504460568FFF76F
S214004FB0DFFE844202D10020FFF7CEFE95F9366070
S214004FC03046FFF7E3FF002E0CDB01221949730978
S214004FD006F01F06B240203341F82320BFF34F8F60
S214004FE0BFF36F8F95F937603046FFF7CFFF002E7F
S214004FF00CDB01220F49730906F01F06B24020336E
S21400500041F82320BFF34F8FBFF36F8F287AFCF74A
S214005010E7FE287AFCF74AFEFCF726FE0023284621
S214005020C4E90033C4E90433A360AB6ABDE870404A
S214005030184700BF00E100E02DE9F0430C46154696
S214005040064687B04022002120461F461CF03BFB48
S21400505095E8030000232A692376EB6884E80300BA
S214005060C4E904232A7DE36084F82C20AA7D236308
S214005070012384F8343084F835300E9B84F82D20D4
S21400508023620F9BE7616362109BA3622B7A84F80E
S21400509036306B7A84F837302D4B346073602D4B86
S2140050A0B3602D4B33612D4B73612D4BF360FCF7D2
S2140050B023FE38B12B4B984204D01024204607B06C
S2140050C0BDE8F083002104F10800FCF79DFD0746CB
S2140050D00028F2D14FF00108234B3362234B84F8AB
S2140050E03C80B361224BF3619DF8483084F8390068
S2140050F084F83B309DF84430204684F83A30697D89
S21400510084F8388015F021FC95F909904846FFF799
S2140051103DFF4846FFF72CFF164B0494CDE902737B
S2140051202369CDE900836368E2682168207A14F079
S21400513046FE04460028C0D195F908502846FFF7D9
S21400514025FF2846FFF714FF3046FFF705FEB5E7B4
S2140051509BA90100014E000019A901001FA901002A
S214005160A94F0000038000F0F3A801004BA901003E
S21400517025A901009D4D00002DE9F04101271C46A0
S214005180584B86B00293584B0C9D0193574B904654
S21400519000930A46CDE903772946554BFFF74CFFA7
S2140051A00646002840F09680236839462B646368DC
S2140051B03A206B64637A85F84930237A85F848305C
S2140051C0E37A85F84B30A37A85F84A30637B85F816
S2140051D04D30237B85F84C30E37B85F84F30A37B3E
S2140051E085F84E30FDF76AF93B460422617A207A4C
S2140051F0FDF7ACFE3B460222E17AA07AFDF7A6FE5A
S21400520039466068FDF75AF988F80060414620681C
S214005210FEF7C0FA1422637C5B0103F1A04303F59A
S2140052207033C3F81C26617A227A42EA0142C3F838
S2140052303426E17AA27A42EA0142C3F82C2685F89F
S214005240506098F81930032B4AD8DFE803F034474B
S214005250021C022385F8503000230422E17BA07B49
S214005260FDF774FE022741F21C61627C214B03EBC2
S21400527042104750E07BA17BB13241EA004103EB8C
S2140052804213996017E0012785F850300222002368
S214005290617B207BFDF75AFE637B227B617C42EAC2
S2140052A00342154B49015A500422236803F58053E4
S2140052B0DA65002FD0D1237A2A6C85F84830637AD5
S2140052C0052185F84930D36C206843F00403D36485
S2140052D014F0E5FE304606B0BDE8F0810027D3E7BF
S2140052E02326F7E7C9AA0100BDAA010055AB0100B5
S2140052F049AB010000C0035024D60350BFF35F8FB4
S214005300074B5A6A22F480325A62D3F8942022F06D
S2140053100102C3F89420BFF34F8FBFF36F8F70471F
S21400532000ED00E070B52948294CFFF7E7FF8442FE
S214005330284D294919D1D5F8C03023F0FF0343F092
S214005340A003C5F8C0304FF080430A68214D234EB5
S214005350C5F8982043F0010301328442C5F89C60EA
S214005360C5F8A0300A601ED00DE0D5F8C02020F0A9
S2140053701F03203B22F0FF0242F0A002B3F1005FC1
S214005380C5F8C020E1D2164B0A68124823F01F0366
S21400539043F00303C0F89820C0F89C30114B01324C
S2140053A0C0F8A0300A60BFF35F8F0522094BC3F830
S2140053B094205A6A42F480325A62BFF34F8FBFF38A
S2140053C06F8FBFF34F8FBFF36F8F70BD0C0F002032
S2140053D0E410002000ED00E0741F00200300002011
S2140053E003110020E1FFFF3FF8B51446FFF786FFE4
S2140053F01F2C27D90027C2062A4D1CBF20F01F00ED
S21400540020302A68CB06284B18BF21F01F01FCB2BB
S214005410A2422BD8D3F8C04020F01F0024F47F44CB
S21400542044F4807421F01F01C3F8C04040F003002C
S214005430C3F8982041F003010132C3F89C00C3F87A
S214005440A0102A600020BFF35F8F0522164BC3F81A
S21400545094205A6A42F480325A62BFF34F8FBFF3E9
S2140054606F8FBFF34F8FBFF36F8FF8BDC3F89840B1
S214005470D3F89C40D3F8A06024F01F04A04226F086
S2140054801F0601D1B142DDD0B04201D8A14207D2F9
S214005490D3F89840013724F0FF04C3F89840B6E7E5
S2140054A02820D0E7741F002000ED00E0BFF34F8FE8
S2140054B00549064BCA6802F4E0621343CB60BFF3AB
S2140054C04F8F00BFFDE700BF00ED00E00400FA05C7
S2140054D0054B1A782AB95B78002B0CBF03200220F4
S2140054E070470120704700BF702C00200329F8B5D4
S2140054F098BF124B05460E468CBF00245C5C032802
S21400550005D8DFE800F002080B0E44F002040C4B4E
S2140055101F684FB9F8BD44F00804F8E744F02004CB
S214005520F5E744F08004F2E77B681A68144203D07B
S214005530314628465B6898473F68EAE72C2E02000B
S214005540A41F002038B5104D2B78ABB10F4C237834
S2140055501BB100F0B7FB00232370002015F063FB9F
S2140055600B4C50B100F000FC0023012120782B707A
S214005570FFF7BCFF0123237038BD0122054B1A70CC
S2140055802278054B1A70F7E76B2C0020692C002058
S214005590722C00206C2C00206D2C002010B514F00E
S2140055A043FD064B04461B781BB1BDE8104014F0C3
S2140055B03FBDFFF7C7FF2046F7E700BF682C002077
S2140055C0094A137830B101331370084B1B78012B4E
S2140055D003D87047013B13707047054B1B780BB917
S2140055E0FFF7B0BF704700BF702C0020722C002061
S2140055F06C2C002070B514F017FD124E054633785B
S2140056009BB900F0EDFC044620B1284614F010FDCE
S214005610204670BD0C4814F00AFB00F089FF0B4BC7
S2140056201C6000F0A9FD0A4B186000F02BFA15F07C
S214005630FCFA084B0024186001232846337014F047
S214005640F7FCE5E7732C0020A41F0020781F00203D
S214005650A01F00207C1F00202DE9F843284A0138AF
S214005660135C39B1274F013339781354012904D814
S214005670BDE8F883013B1354FAE7FFF729FF01283A
S214005680044635D814F0D0FCDFF88480054698F838
S214005690003013B31C4E33781BB9012232701B4AFC
S2140056A01370DFF8709099F8003023B100F00AFB11
S2140056B0002389F80030284614F0BAFC012015F0C3
S2140056C0B2FA14F0B1FC337805461BB100F04CFB7F
S2140056D000233370002388F80030284614F0A8FC16
S2140056E03878A042C4D02146FFF700FF3C70BFE7E1
S2140056F00329F5D10228F3D115F09BFAF0E700BF95
S214005700702C0020722C0020682C00206C2C0020AE
S2140057106B2C0020692C002010B5044614F084FC85
S214005720002C0CBFFF210121064A13780B44DBB284
S2140057301370B3FA83F3BDE81040034A5B09137095
S21400574014F076BC6F2C00206E2C002038B514F0B8
S2140057506BFC094B05461B78012B04D814F068FC3B
S2140057600024204638BD054B1C6800F047FB044467
S214005770284614F05DFCF4E7722C0020781F002009
S21400578038B54160044614F04FFC054621460448EF
S21400579014F050FA2846BDE8384014F049BC00BF63
S2140057A0A41F0020054B1B685843054B00F57420CA
S2140057B000F23F20B0FBF3F0704700BFA01F0020B0
S2140057C040420F002DE9F04F85B0EFF3108772B618
S2140057D0AFF3008014F074F900286FD0804EDFF825
S2140057E02C82337823B10020FFF7EAFE00233370C3
S2140057F0FFF76EFE0446002867D0841EE4B2012C34
S2140058006AD9FFF765FE01280546764CDFF8009258
S21400581000F28C802078854240F0C680207800F028
S214005820D7FA99F8003013B16F4B1B782370AFF39B
S214005830008007B962B6EFF3108772B66B4B1A7822
S21400584052B100221A70684B20781B78984203D118
S21400585001212170FFF74AFE654800F0FBFB14F0BB
S2140058603EF905460028BCD1624BDFF894811870DB
S21400587098F80030ABB189F80000DFF88C9199F801
S21400588000301BB100F01EFA89F80050002015F019
S214005890CAF9002800F09B8000F066FA002388F81A
S2140058A00030337823B10020FFF78AFE00233370E0
S2140058B000212078FFF71AFE00232370AFF3008044
