S02B000073696C6162735F6566723332626732325F626C655F736F635F6C6364313630325F6932635F636F6E9B
S214000000C00A002079110000BD930100BD930100D5
S214000010BFA30100BD930100BD930100BD93010085
S214000020BD930100BD930100BD930100BD93010087
S214000030BD93010048210200A9910100BD93010073
S214000040BD930100BD930100BD930100BD93010067
S214000050BD930100BD930100BD930100BD93010057
S214000060BD930100BD930100BD930100BD93010047
S214000070195E0000BD930100BD930100C90B00008E
S2140000806B920100BD930100BD930100BD9301007A
S214000090BD9301008D1A0000BD930100BD930100C1
S2140000A0BD930100851C0000611C0000BD9301008B
S2140000B0BD930100B96C0100BD93010001770100FA
S2140000C0470D0200430D0200F16E0100530D0200C1
S2140000D04B0D0200D97601004F0D0200417701005A
S2140000E0CD50010091520100B1770100BD9301008F
S2140000F0BD930100BD930100BD930100BD930100B7
S214000100BD930100BD930100BD930100BD930100A6
S214000110BD930100BD930100BD930100BD93010096
S214000120BD930100BD930100BD930100BD93010086
S214000130BD930100BD930100BD930100BD93010076
S214000140013800D0FCE77047002370B5404C0546E8
S2140001508AB0E36318B1008823600AF0A9FD3D4821
S21400016020F050F93C4E3D4B304633603C4B7360BC
S2140001701DF0E0FA0021304610F02CFF32A3D3E940
S2140001800023A062C4E906231DF0DFFAD4E90623A3
S21400019019431043C4E90601CDE900014FF0FF33CF
S2140001A04FF0FF32A06A20F0A8F902224FF0FF318C
S2140001B0A06A20F0A7F901200AF0F4FA4FF40073C1
S2140001C000222849A06A20F0F0F9B0F5007F38D167
S2140001D000239422CDE9073309933C23CDE903326B
S2140001E005939623A06A03A9069311F011F835B378
S2140001F0287C0AF0DDFE0546F0B9A06A20F0B6FAC3
S2140002000AF084FE0AF0B0FA20B14FF480700021A4
S21400021008F022FB0AF0B8FA20B14FF40060002183
S21400022008F01AFB1DF05BFB012010F027FF0E4ABA
S2140002300E49A06A1DF07CFA28460AB070BDFF2061
S214000240D7E70725F8E700BF0DD5015520000000C9
S21400025078110020690345ECB024002029A6000090
S214000260C0240020B0220020D9D6010019D70100F2
S2140002700348044B834202D0034B03B11847704730
S214000280041100200411002000000000064B07495E
S214000290C91A891048BF0131491003D0044B0BB16D
S2140002A001481847704700BF0411002004110020C1
S2140002B00000000010B5064C237843B9FFF7D8FFBE
S2140002C0044B13B10448AFF300800123237010BD24
S2140002D0342C0020000000000C6A020008B5054B14
S2140002E01BB105490548AFF30080BDE80840FFF79D
S2140002F0CDBF00BF00000000D81300200C6A02002B
S214000300A3F5803A704700BF174B002B08BF134B6E
S2140003109D46FFF7F5FF00218B460F461348144A0B
S214000320121A20F0D8FD0E4B002B00D098470D4B2C
S214000330002B00D098470020002104000D000D4837
S214000340002802D00C48AFF3008017F057FC2000BE
S214000350290018F01DFF17F03FFC00BF0000080042
S2140003600000000000000000C00A00200411002069
S214000370442D00200000000000000000014B18681B
S21400038019F03CB8E00A0020034B00B51A780AB111
S21400039000221A705DF804FB352C00207FB5036838
S2140003A0AB4A23F47F4323F00703934200F07081A7
S2140003B00AD8A2F51022934225D002F5A022934235
S2140003C000F0CA8004B070BDA24A934200F0DA8002
S2140003D002F101729342F5D1B0F805301C2BF1D131
S2140003E00389DB07EED5032000F01EFD0028E9D0C8
S2140003F0994C9A49206819F02AFE18F081FF18F0E7
S21400040080FF9749B8E0974E30460CF0A9FF0546A6
S21400041010B3914C9449206819F019FE934920684E
S21400042019F015FE18F06CFF18F06BFF904B914A10
S214000430009391496B23206819F009FE8F492B46DB
S2140004408F4A206819F003FE284600F033FD8D49D8
S214000450206819F0FCFDFEE7022130780CF0BAFFA8
S214000460044610B37C4D8049286819F0F0FD7F499A
S214000470286819F0ECFD18F043FF18F042FF7C4B9B
S2140004807C4A00937C497023286819F0E0FD7B497C
S21400049023467B4A286819F0DAFD204600F00AFD5C
S2140004A07849286819F0D3FDFEE7A022009003469D
S2140004B0114630780CF06CFF054610B3664C6A495E
S2140004C0206819F0C4FD6949206819F0C0FD18F0CD
S2140004D017FF18F016FF664B664A009366497923A5
S2140004E0206819F0B4FD65492B46654A206819F066
S2140004F0AEFD284600F0DEFC6249206819F0A7FD34
S214000500FEE7022130780CF079FF054600283FF41C
S21400051059AF514C5449206819F099FD5349206849
S21400052019F095FD18F0ECFE18F0EBFE504B514A12
S214000530009351497E23206819F089FD4F492B46C8
S2140005404F4A206819F083FD284600F0B3FC4D4959
S214000550206819F07CFDFEE7032000F065FC00280B
S2140005603FF430AF3C4C3D49206819F070FD18F060
S214000570C7FE18F0C6FE4449206804B0BDE87040C7
S21400058019F065BD032000F04FFC60B1324C3349D2
S214000590206819F05CFD18F0B3FE18F0B2FE3B4977
S2140005A0206819F054FD2F4C022120780CF012FF21
S2140005B0054610B3284C2C49206819F048FD2B49F5
S2140005C0206819F044FD18F09BFE18F09AFE284BA0
S2140005D0284A009328499C23206819F038FD2749AB
S2140005E02B46274A206819F032FD284600F062FCA8
S2140005F02449206819F02BFDFEE7022120780CF034
S214000600FDFE054600283FF4DDAE134C1649206873
S21400061019F01DFD1549206819F019FD18F070FE37
S21400062018F06FFE124B134A00931349A12320685B
S21400063019F00DFD11492B46114A206819F007FDE7
S214000640284600F037FC0F49206819F000FDFEE749
S214000650A0000A00A0000601A8140020681C0200E2
S214000660AC1C0200020F00207F1C02003D1C020092
S214000670CA1C0200421C02004B1C0200281C02007E
S214000680251C0200571C02006D1C0200811C020083
S214000690B0F805301C2B7FF495AE032000F0C4FBA9
S2140006A060B1204C2049206819F0D1FC18F028FED3
S2140006B018F027FE1D49206819F0C9FC0DF10B053E
S2140006C0012200211C20009503AB0CF0BDFE044661
S2140006D050B9174B186818F01DFF2B46012221460B
S2140006E01F200CF0E3FE6DE6012000F09DFB0028C5
S2140006F03FF468AE0B4D0F49286819F0A8FC18F0B7
S214000700FFFD18F0FEFD23460B4A0C49286819F039
S2140007109EFC204600F0CEFB0949286819F097FC9D
S21400072050E600BFA8140020681C0200951C0200BA
S214000730E40A0020201C0200251C0200281C0200DF
S214000740801C0200034B1B68834202BF0122024B3F
S2140007501A707047E00A0020352C002030B5036878
S2140007607C4A23F47F4323F00703934289B040F08A
S214000770EE80082200211220774B0CF097FE0446EC
S21400078010B3764D7649286819F061FC75492868DB
S21400079019F05DFC18F0B4FD18F0B3FD724B734A07
S2140007A0009373493D23286819F051FC714923468C
S2140007B0714A286819F04BFC204600F07BFB6F4915
S2140007C0286819F044FCFEE70146032214206C4B0F
S2140007D00CF06CFE044610B3604D6149286819F0B1
S2140007E036FC6049286819F032FC18F089FD18F0CC
S2140007F088FD5D4B5D4A00935D494B23286819F0E0
S21400080026FC5C4923465C4A286819F020FC2046F2
S21400081000F050FB5949286819F019FCFEE701461C
S21400082005221620574B0CF041FE054610B34B4CE4
S2140008304B49206819F00BFC4A49206819F007FC60
S21400084018F05EFD18F05DFD474B484A0093484996
S2140008505923206819F0FBFB46492B46464A206878
S21400086019F0F5FB284600F025FB4449206819F0EE
S214000870EEFBFEE70DF10F0104A80CF045FE044662
S21400088010B3364D3649286819F0E1FB354928681B
S21400089019F0DDFB18F034FD18F033FD324B334A07
S2140008A0009333496423286819F0D1FB3149234665
S2140008B0314A286819F0CBFB204600F0FBFA2F4996
S2140008C0286819F0C4FBFEE7BDF8143001465BBA91
S2140008D0ADF818309DF8133008228DF81A30FF2333
S2140008E08DF81B30FE238DF81C309DF81230182032
S2140008F08DF81D30BDF810305BBAADF81E3006AB73
S2140009000CF0D4FD054610B3144C1549206819F0B8
S2140009109EFB1449206819F09AFB18F0F1FC18F0B9
S214000920F0FC114B114A009311497423206819F00A
S2140009308EFB10492B46104A206819F088FB284683
S21400094000F0B8FA0D49206819F081FBFEE709B0FF
S21400095030BD00BFA0000100D91C0200A814002072
S2140009607F1C02003D1C0200141D0200E21C020057
S2140009704B1C0200281C0200251C0200571C02000B
S2140009800A1D02000E1D020010B5234C01F05CFC8F
S21400099001F07CFE236F23F0070343F00303236775
S2140009A018F00EFF1D4B00209B6A9B075EBF0122BE
S2140009B01B4B9A62D4F8203123F0030343F0020362
S2140009C0C4F82031D4F8243123F0070343F002039F
S2140009D0C4F82431D4F8403123F0030343F0020373
S2140009E0C4F84031D4F8603123F0030343F0020327
S2140009F0C4F86031D4F8403223F0030343F0020316
S214000A00C4F84032D4F8003223F0070343F0020360
S214000A10C4F8003210BD00BF0080005000C0005077
S214000A2000E0005008B502F0D9FA01280ED1144BA8
S214000A3004205A6E4FF480231249520358BF124ABC
S214000A404B6601F51041086258BF536603F0F4FD8B
S214000A5018F065FC03F080FD03F0D8FD03F09EFD62
S214000A6019F0A4FAFFF790FF03F086FD18F04EFC8D
S214000A7000F03CFC01F018F9BDE8084004F048BA64
S214000A80008000500090005000A0005008B53A20AA
S214000A90012101F0FFFABDE80840014800F042BD20
S214000AA0C00A002030B5224D95B00DAC0FCD0FC456
S214000AB095E80700032384E807008DF84D302923C6
S214000AC01C4A1D49CDE902231C4B0E22CDE9041316
S214000AD04FF4807300210DF12600069320F0FBF9F9
S214000AE04FF4A020164B07A9CDE907030F238DF876
S214000AF0243010238DF82530124B0DAA0A9320239C
S214000B000B9301238DF831300F4B1048009302AB46
S214000B1003F0C0FF04469DF832304FF4E130002B5E
S214000B200CBF0321002118F03AFC204615B030BD5A
S214000B3074200200000006500005000600080007AA
S214000B4024000650362C0020F01300204414002009
S214000B50831E012B10B512D8012922D8114B04226E
S214000B601B6905210020C3F3401301F0DBFF0E4B89
S214000B701B681868A8B1BDE81040436A18478B1E6A
S214000B80012B0CD801280CD8BDE810400022054BDC
S214000B9005211B691046C3F3401301F0C3BF0129AA
S214000BA0E5D910BD00C00350D40A002008B504499A
S214000BB0044804F073FABDE80840FFF773BF00BFAF
S214000BC0D80A002068140020014819F0AEBB00BF08
S214000BD044140020014B1A6A186810474414002079
S214000BE0014818F006BC00BF90200200014818F02B
S214000BF08EBC00BFA8200200184B37B583422AD10E
S214000C00174B1B783BB3C8B20CF00CFC054610B370
S214000C10144C1549206819F01AFA1449206819F07E
S214000C2016FA18F06DFB18F06CFB114B114A009386
S214000C3011498523206819F00AFA10492B46104AF4
S214000C40206819F004FA284600F034F90D492068A7
S214000C5019F0FDF9FEE703B030BD00BF70140020A8
S214000C60562C0020A81400207F1C02003D1C020009
S214000C7012210200C02002004B1C0200281C0200A9
S214000C80251C0200571C020030B500250368584A90
S214000C9023F47F4323F0070385B09342044602956E
S214000CA0ADF80C507ED002F5802293420ED0A2F111
S214000CB08272934240F09A804E4B1B78002B00F0D5
S214000CC0958005B0BDE8304019F062BCB0F805303C
S214000CD0242B40F08B80FF2304A91A4611E9030059
S214000CE018F007FB012814BF41F2FC15414B05F034
S214000CF0FC0208BF1870242120790CF0EDFB054695
S214000D0010B33D4C3D49206819F0A1F93C492068D4
S214000D1019F09DF918F0F4FA18F0F3FA394B3A4A3C
S214000D2000933A495923206819F091F938492B461F
S214000D30384A206819F08BF9284600F0BBF8364987
S214000D40206819F084F9FEE7344900902379344A84
S214000D500968344800F008F90546002846D0264CB5
S214000D602649206819F073F92549206819F06FF9AB
S214000D7018F0C6FA18F0C5FA224B234A0093234906
S214000D806223206819F063F921492B46214A20681E
S214000D9019F05DF9284600F08DF81F49206819F013
S214000DA056F9FEE7B0F80530B7EE047A07EE903A4B
S214000DB0F8EE677AB0F8073067EE877A013307EE09
S214000DC0103AB8EEC77A67EE877AB1EE047A67EE25
S214000DD0877AFAFE677AFCEEE77A17EE903AB3F572
S214000DE07A7F38BF4FF47A730C4A136005B030BD73
S214000DF0A0000602562C0020A81400207F1C02002B
S214000E003D1C020021210200C02002004B1C0200F3
S214000E10281C0200251C0200571C0200E80A0020BD
S214000E20F90B0000701400200B4B02461B7883B1B0
S214000E300A4B1B78834234BF00200120084B1B78E6
S214000E4033B1084B1B78134113F0010F08BF002085
S214000E5070470120F2E700BF080F0020070F0020B0
S214000E60572C0020060F0020012208B5074B1A70E9
S214000E700022074B1A700422064B1A701F22064BDC
S214000E801A7003F003FC054B186008BD080F00201D
S214000E90572C0020070F0020060F0020A814002063
S214000EA0024B0349186819F0D2B800BFA8140020F6
S214000EB04121020070B50C4C0C490646206819F01A
S214000EC0C6F803F0E3FB0546206803F0D3FB304684
S214000ED0FFF7E6FF284603F0CDFB20680449BDE88F
S214000EE0704019F0B4B800BFA814002043210200D7
S214000EF04521020038B5054618F07EFC00230B4A53
S214000F0014685CB1AC4206D1A96A6BB1996218F05C
S214000F1079FC012007E02346A46AF2E7002DF3D00F
S214000F2018F070FC204638BD1160F0E7AC140020C5
S214000F3010B5044698B104F01BFD2046FFF7DAFF13
S214000F4010B194F82C300BB9002010BD18F054FCEA
S214000F50044A1368013B136018F054FCF4E722209F
S214000F60F3E700BFB01400202DE9F04385B0054636
S214000F70914698460E469DF8307009B9002F5CD110
S214000F802846FFF7D5FF0446002836D185F82C0002
S214000F90686304F0DFFD864233D904F07BFD21460A
S214000FA0844640F2E7304FF47A720023E6FB0C01E9
S214000FB016F082FC4FF0FF32002316F07DFC2B4625
S214000FC0E88611462846CDE900441D4A19F06DFA18
S214000FD0044690B9C5E9089885F82D702E6318F078
S214000FE00BFC184A136833B31A469B6A002BFBD1D6
S214000FF095620023AB6218F005FC204605B0BDE8FC
S214001000F08347B12B4631462846CDE900440C4ACA
S21400101004F064FDDCE7304603A904F041FD044615
S2140010200028EAD12B462846CDE90077044A0399E2
S21400103019F017FACCE71560DBE72124DDE700BFDF
S21400104049100000AC14002091F82C3013B50C4663
S21400105083B98B8ECA8E93420ED243B9CDE9003344
S21400106020460B46104A4FF0FF3119F0DEF9A38EEA
S2140010700133A38602B010BD52B191F82D307BB17A
S21400108001230093D1E908232046096BFFF76CFF84
S2140010900123064A84F82C30136801331360E9E70D
S2140010A0084604F065FCF3E749100000B014002081
S2140010B02DE9F041144E336823B34FF00008134F68
S2140010C018F09AFB05463C6824B92846BDE8F0416E
S2140010D018F098BB94F82C3093B1336884F82C80C1
S2140010E0013B336094F82D3013B92046FFF702FF1A
S2140010F0284618F087FBD4E9083120469847DFE7F2
S214001100A46AE1E7BDE8F081B0140020AC1400202A
S214001110034B1B68002B14BF04200120704700BF40
S214001120B0140020024B1868B0FA80F040097047EF
S214001130B014002007B5082018F0D2F902238DF865
S2140011400030054B6846019318F0EDF8082003B010
S2140011505DF804EB18F0CFB9006A18100348044A8B
S2140011600449121A921018F02AB900BF64700200DF
S21400117064700200442D002008B500F02FF8FFF739
S214001180EDFF124B12498B4212D30020114B12492D
S2140011908B4218D3FFF7B8F8186850F82240586802
S2140011A040F82240013298688242F5D30C33EAE7D1
S2140011B00022F8E71C6844F8220001325C68A2426C
S2140011C0F8D30833E4E70022F8E700BF146A020009
S2140011D0206A0200206A0200206A02004FF40041E2
S2140011E04FF0FF30124B134A10B59A60D3F88820A0
S2140011F042F47002C3F888200F4A916601F18841D4
S21400120001F5005210664FF6DF7050660220C3F8F4
S214001210D000BFF34F8FBFF36F8F08244FF44033D7
S2140012200648C0F88041D36004600B6110BD00BF63
S21400123000ED00E0000000000090005000E100E03B
S214001240014B1868704700BFF00A0020084B1B6F60
S21400125003F00703022B04D0032B05D0012B05D087
S214001260FEE7044B18687047034BFBE703487047DC
S21400127000800050F00A0020F80A0020002D3101FE
S21400128008B5FFF7E3FF054B1B6FC3F303330133CA
S214001290B0FBF3F0024B186008BD00BF00800050A2
S2140012A0EC0A00200048704700B4C404014B1868DC
S2140012B0704700BFF80A0020054B1860054B1B6FEF
S2140012C003F00703032B01D1FFF7DABF704700BF17
S2140012D0F80A00200080005000487047002D3101B9
S2140012E0014B1868704700BFF40A002000239B6A71
S2140012F010B5B3F5903F11D219680A4A91420DD144
S214001300094C227812F0FD0F01D0002010BDDB69D9
S21400131098470028FAD101232370F6E74FF481702E
S214001320F4E700BF07B0CD5E582C00204FF0005306
S214001330074A1A60BFF34F8F0649074BCA6802F484
S214001340E0621343CB60BFF34F8F00BFFDE700BFE3
S21400135002020FF000ED00E00400FA050346054A1D
S2140013600549106803448B428CBF4FF0FF30136072
S214001370704700BFFC0A002000800020F7B5046814
S214001380012105463A2000F085FE002301226179FE
S214001390207901F0C7FB14233021227911FB02319A
S2140013A001F1A04101F5703109686379D940C9435C
S2140013B0A37901F00101022B217017D100F0BCFBCC
S2140013C0164A2B466179207900F0E0FBFF2802469A
S2140013D060790ED12A46114900F010FC012302461E
S2140013E061792079CDE9003301F042FB002003B09B
S2140013F0F0BD01262779002301460096384601F005
S214001400F9FB2A460549607900F0F8FB002361796C
S21400141002462079009301963346E5E705940100DD
S21400142008B501213A2000F035FE032101230422ED
S214001430002001F077FB002018F0FFF90122214B75
S2140014404FF46070C3F8442418F0F1F81E4B00F512
S214001450D520D3F8F02000F2FC4042F00102C3F899
S214001460F020D3F8FC2042F08072C3F8FC20174A24
S214001470A3F55D431A60164B0222B0FBF3F0154B42
S21400148001381861C3F8F0204FF48072C3F80423C3
S2140014904FF06043104A0020C3F8B02F0F4AC3F83D
S2140014A0802ED3F8002E42F48072C3F8002EFF225E
S2140014B083F82020D3F8002E22F48072C3F8002E82
S2140014C008BD00BF00D0035000ED00E0FF03004061
S2140014D0F8590D00000004E055CEACC50900010027
S2140014E04FF06043D3F8802E30B5D20715D50124CF
S2140014F00B4D8440D5F8FC2042F08072C5F8FC20E5
S214001500D3F8002E2243C3F8002E53F82020002ADA
S214001510F0D003F82010002030BD1120FCE700BFFB
S21400152000ED00E02DE9FF410368374A0446934288
S21400153055D0364A93424FD12F20012100F0AAFD04
S21400154001230A226179207901F0ECFA01230A22AC
S214001550E179A07901F0E6FA0A2601272C4D4FF032
S214001560300842F210012379627908FB035307FA28
S21400157002F25A50642004F081FC41F210012379F3
S214001580627908FB035307FA02F264205A5004F00B
S21400159075FC013EE3D120681B4B984221D1032302
S2140015A0C5F890346279237943EA0243C5F8943447
S2140015B0E279A37943EA0243C5F8983440F201136E
S2140015C0ADF80030E36869460293A3680193237C74
S2140015D08DF80C3001F06AFB04B0BDE8F0812E20D7
S2140015E0ABE70A4B9842E9D10323C5F8A0346279E9
S2140015F0237943EA0243C5F8A434E279A37943EA9F
S2140016000243C5F8A834D9E70000015A0080065006
S21400161000C0035010B5012243780178847830204A
S2140016209A40054B00FB01331CB942F210015A5098
S21400163010BD41F21001FAE700C0035010B50122B8
S21400164043780178847830209A40054B00FB0133BC
S2140016501CB941F210015A5010BD42F21001FAE7CF
S21400166000C003502DE9F04F9A46564B85B01B78C4
S21400167006460F461546DDF83C909DF844B0DDF86A
S2140016805080002B00F09780072A00F296800E9B71
S214001690002B00F09280B9F1000F00F08E80129BB4
S2140016A0B3F5006F00F38980012803D1109B002B4F
S2140016B000F08380444B03EB05131B7B002B7ED08E
S2140016C0424C1022002168461FF005FC04EB45142E
S2140016D01022A7BB394620461FF0FDFB43F210033D
S2140016E06380BBF1000F03D1E37843F00303E3709C
S2140016F0364A0E9B02EB451CCCE90193129B69010E
S214001700581E9DF84C30C0F30A0003F003039B06F6
S21400171043EA001E53582E48012E00EA03004EEA04
S2140017200003CDF800A0535017D0B8F1000F2ED10B
S2140017309CF8023068F304138CF8023027E000218E
S21400174020461FF0C8FB4FF444736380BBF1000FC4
S214001750CED1E37843F03003C9E713230CF1100E23
S214001760CCF80C309CE80F008EE80F006FF00301F9
S214001770DCF81C20109B61F39F02012FCCF81C2084
S214001780CCF8143003D1CCF81890CCF804300027ED
S2140017900D4A290102EB051342F80180159A2846E6
S2140017A05A60694622469F605E7301F0FFFA38462B
S2140017B005B0BDE8F08F0748FAE70748F8E707489E
S2140017C0F6E700BF592C0020B4150020B414002002
S2140017D00F80FFF3028000F0018000F0078000F029
S2140017E038B5124B05461B78DBB1E0B118F004F8AB
S2140017F00F4A00231146147B54B92B6001251A01A9
S21400180001EB03131D738C5017F0FCFF204638BD08
S2140018100133082B02F11002EDD117F0F3FF054853
S214001820F5E70548F3E70548F1E700BF592C002027
S214001830B4150020048000F0028000F0018000F063
S21400184038B517F0D9FF002305460B4A147B6CB950
S2140018500133082B02F11002F8D101F049FA074BC8
S21400186028461C7017F0CEFF204603E0284617F0E7
S214001870C9FF034838BD00BFB4150020592C00200E
S214001880058000F00D4B10B51B78044693B1072871
S21400189012D817F0B1FF0A4B03EB04131A7B2AB1D8
S2140018A000241C7317F0AEFF204610BD17F0AAFFE9
S2140018B00448FAE70448F8E70448F6E7592C0020FD
S2140018C0B4150020068000F0028000F0018000F0D1
S2140018D0154B13B51868002301908DF8043017F0E7
S2140018E08BFF124B1C7824B117F08CFF104802B007
S2140018F010BD01221A7017F085FF0E4B01A81C734D
S2140019001C7783F82C4083F83C4083F84C4083F8DF
S2140019105C4083F86C4083F87C4008238DF80730E1
S21400192001F012FA2046E2E798210200592C002026
S214001930038000F0B41500200A4A08B512785AB1A0
S21400194007280BD8084A02EB00131B7B43B1002183
S21400195001F0ECF9002008BD0448FCE70448FAE76B
S2140019600448F8E7592C0020B4150020028000F047
S214001970018000F0078000F00A4A08B512785AB1D4
S21400198007280BD8084A02EB00131B7B43B1012142
S21400199001F0CCF9002008BD0448FCE70448FAE74B
S2140019A00448F8E7592C0020B4150020028000F007
S2140019B0018000F0078000F00A4A08B5127852B19C
S2140019C007280AD8084A02EB00131B7B3BB101F03C
S2140019D039FA002008BD0548FCE70548FAE705483F
S2140019E0F8E700BF592C0020B4150020028000F054
S2140019F0018000F0078000F00D4B1B7893B107289C
S214001A0012D889B10B4B03EB00131B7B73B10A4B47
S214001A101A6D01238340134214BF012300230020C4
S214001A200B70704705487047054870470548704773
S214001A30592C0020B415002000000450028000F04D
S214001A40018000F0078000F00B4A10B512780C46B3
S214001A5062B107280CD859B1084A02EB00131B7B69
S214001A6043B101F001FA2070002010BD0448FCE7E5
S214001A700448FAE70448F8E7592C0020B41500207B
S214001A80028000F0018000F0078000F0184B2DE97E
S214001A90F0411F6D5B6D1F4000D5FEE70126002557
S214001AA0144CDFF85880374218D02368C8F85060C6
S214001AB0A3B1A168284601316268A1609847637B9C
S214001AC0012B0BD150B90C4B03EB45131A7B60F37B
S214001AD041021A731A7F60F341021A770135082D06
S214001AE04FEA460604F11004DDD1BDE8F08100BFE0
S214001AF000000450B4150020B41400200020045048
S214001B0070B5044601250B4E04B970BD94FAA4F0D6
S214001B10B0FA80F005FA00F306EB001224EA03049C
S214001B205368002BF0D0117B11B191689847EBE712
S214001B309847E9E73416002008B5192000F0D2FDD2
S214001B4028B14FF00072074BC3F880211A601A20A4
S214001B5000F0C8FD28B14FF08062024BC3F8802128
S214001B601A6008BD00E100E038B505460C4617F0DF
S214001B7043FE0022044B03EB05135C601A73BDE8BA
S214001B80384017F03FBE00BF34160020F8B50446B4
S214001B900D4617461E4617F02FFE1CB9052D18D009
S214001BA0FF241FE0012C05D1012D1FD0032DF7D1F6
S214001BB004240EE0022C07D1052D19D0072D19D0CC
S214001BC0002DEDD1062404E0032CE9D1022DE7D147
S214001BD00924094904F1100301EB03110123C1E9AB
S214001BE001760B7317F00EFE2046F8BD0324F0E7CF
S214001BF00724EEE70824ECE734160020F8B505467F
S214001C000E46174617F0F8FD134B2C46D3F824243F
S214001C1005F0FC0122FA05F3DB0712D50023013399
S214001C20DBB2042B04D1FF2417F0ECFD2046F8BDF0
S214001C30EC1804F003040C4422FA04FC1CF0010F18
S214001C40EDD1FF2CF0D00122044B03EB0413C3E9C3
S214001C5001671A73E8E700BF00C00350341600207F
S214001C60074BD3F82404D3F8202403F50053104080
S214001C7000F0553020F05020C3F82004FFF740BF96
S214001C8000C00350074BD3F82404D3F8202403F5F0
S214001C900053104000F0AA3020F0A020C3F8200423
S214001CA0FFF72EBF00C00350024B1968024B18689E
S214001CB00EF0A2BD000B0020200B002070B5940093
S214001CC0224605460E461FF087FF431C0AD058B929
S214001CD02246314628461FF0D4F80028034808BF9D
S214001CE0002070BD0248FCE70248FAE710E000F06A
S214001CF021E000F024E000F010B504461FF074FF69
S214001D00431C10D088B901F071F9234620F0030077
S214001D102044984201D1002010BD53F8042B013214
S214001D20F7D00348F8E70348F6E70348F4E700BFB0
S214001D300EE000F021E000F024E000F008B517F017
S214001D4054FD014B186008BD241F0020014B186885
S214001D5017F04FBD241F0020044BD3F88420D20672
S214001D60FBD4D3F88400C0F38110704700400050C5
S214001D7038B5104B0546D3F820310C4603F0030364
S214001D80022B0BD0032B0DD0012B0FD1FFF758FAE7
S214001D90052305B1286004B1236038BDFFF786FA35
S214001DA00323F6E7FFF798FA0223F2E70123002061
S214001DB0EFE700BF0080005073B50D4600210E4BC4
S214001DC00191D3F88041064604F00304012C09D0A3
S214001DD0022C0CD00C460EB1019B336005B12C6072
S214001DE002B070BD01A8FFF7C3FF0F24F3E7FFF7AB
S214001DF073FA0190EFE700BF0080005038B5184B2B
S214001E000546D3F824010C4600F00700062823D820
S214001E10DFE800F0040A121A1E0E1600012305B1B0
S214001E20286004B1236038BDFFF70AFA0523F6E7F9
S214001E30FFF706FA0623F2E7FFF738FA0323EEE782
S214001E40FFF734FA0423EAE7FFF746FA0223E6E749
S214001E5017F0C0FA0723E2E700231846DFE700BFC3
S214001E600080005038B5104B0546D3F840310C467C
S214001E7003F00303022B0BD0032B0DD0012B0FD145
S214001E8017F0AAFA092305B1286004B1236038BD0B
S214001E90FFF726FA0823F6E717F0A1FA0B23F2E776
S214001EA001230020EFE700BF0080005038B5144B38
S214001EB00546D3F800020C4600F0070004281BD89D
S214001EC0DFE800F003090D111500012305B12860B5
S214001ED004B1236038BD17F07FFA0923F6E7FFF751
S214001EE0FFF90823F2E717F07AFA0B23EEE7FFF77D
S214001EF0C7F90E23800AE9E700231846E6E700BF85
S214001F000080005038B5104B0546D3F840320C46DA
S214001F1003F00303022B0BD0032B0DD0012B0FD1A4
S214001F2017F05AFA092305B1286004B1236038BDBA
S214001F30FFF7D6F90823F6E717F051FA0B23F2E776
S214001F4000231846EFE700BF0080005038B5104B5E
S214001F500546D3F860310C4603F00303022B0BD082
S214001F60032B0DD0012B0FD117F036FA092305B13C
S214001F70286004B1236038BDFFF7B2F90823F6E7FE
S214001F8017F02DFA0B23F2E701230020EFE700BF3E
S214001F900080005010B40D4C0B46D4F8204204F0DC
S214001FA00304012C0AD0022C0CD008B100210160D9
S214001FB00BB100221A605DF8044B70475DF8044BC5
S214001FC0FFF7D6BE5DF8044BFFF74CBF008000500D
S214001FD038B50C46054617F008FC054B9A6A54407F
S214001FE02C4054409C62BDE8384017F002BC00BF4D
S214001FF000C00050B0F5207F1FD009D8B0F5007F94
S21400200015D003D868B1B0F5C07F0AD000200CE028
S214002010B0F5607FFAD10B4BD3F88000C0F3011007
S21400202003E0084B186FC0F3033001307047054BD0
S214002030D3F89000C0F30460F7E7024B186FC0F3C4
S2140020408020F2E7008000504FF400320E4B01462D
S21400205010B500209A66FFF7CDFF484341F671326F
S2140020600A490B4B884294BF00200120DC69DA63E2
S2140020709A6822F4401242EA00529A60E20344BF91
S2140020800022DA6310BD00BF00900050005A6202C2
S21400209000000350420910B50FD0012A0FD00A4B9A
S2140020A00A4C022A18BF234600F01F0049B103F568
S2140020B08053012282401A6010BD1346F4E7044B99
S2140020C0F2E703F50053F4E76880005060820050A2
S2140020D06480005008B5802017F0A9FA034B984298
S2140020E09EBF4FF48032024B1A6708BD005A620248
S2140020F000A000501FB50023B0F5807F019377D075
S21400210028D8382800F094800BD82438092810D80E
S21400211009280ED8DFE800F0676767670D0D620DC7
S214002120377D52285FD008D83D283BD03E2800F0A7
S2140021308480019805B05DF804FB8028F9D1414BF6
S2140021401B6F03F00703013B032BF2D8DFE803F015
S21400215044413F6CB0F5D06F5BD019D8B0F5A06F96
S21400216066D00AD8B0F5806F3DD0B0F5906FE0D15C
S214002170002001A9FFF742FEDBE7B0F5B06F2DD0D7
S214002180B0F5C06FD5D1002001A9FFF76BFED0E7F0
S214002190B0F5006FECD00AD8B0F5E06F4DD0B0F5D2
S2140021A0F06FC6D1002001A9FFF7D0FEC1E7B0F559
S2140021B0086FBED1234BD3F8003103F00303022B84
S2140021C02CD0032B2ED0012B30D1FFF76FF8032332
S2140021D000E005230193ACE70223FBE7002001A9FA
S2140021E0FFF7EAFDA5E7002001A9FFF7C1FDA0E77C
S2140021F002934FF0E0231B695B0705D5FFF740F815
S2140022000C230393039BE5E703A902A8FFF72AFE26
S214002210F8E7002001A9FFF749FE8AE7FFF760F814
S2140022200823D7E717F0D6F80723D3E70123D1E72B
S214002230002001A9FFF7AEFE7BE7002001A9FFF70B
S21400224061FE76E7008000504FF40022034B5A668A
S214002250012203F580439A62704700BF0090005049
S21400226008B5FFF747FF082811D00938012802D91A
S2140022704FF6FF7008BD4FF40012064B5A6603F582
S214002280D8335B6ADB07F3D54FF4FA70F2E7024BFC
S2140022901888EFE700900050F00E0020F8B50446CE
S2140022A08020FFF727FF032800F087804FF40022E6
S2140022B0424B02215A6645F60E03414AC2F8803068
S2140022C0404B9962012103F580539962936DD903BF
S2140022D0FCD4D4E900131B0543EA0163E17B94F8C0
S2140022E020500B43217BE77E43EA0143617B6D016F
S2140022F043EA0133A17B43EA811313619169D4E970
S21400230004031B0643EA806301F000410B43A17EF1
S21400231094F823000B43217E43EA0143617E43EA9F
S21400232001239361136AE66923F00D0394F82210E3
S21400233043EA8703002E2DD11362966A94F8213063
S21400234045EA031326F033052B4343F0010393625B
S2140023501D4D1B4B9A6D35EA0202FBD10222194D28
S214002360AA621A659A6D5200FCD41A69A56822F40E
S214002370700242EA05521A614FF00042114B9A6110
S21400238019B9022203F580539A6278B901220F4BDD
S2140023909A620BE0334343F008031362936A23F018
S2140023A0330303432B4343EA4103936294F82430F8
S2140023B01BB1034B064AC3F88020F8BD00900050BE
S2140023C000C0005000D000500300014000E0005064
S2140023D0F1A7FFFF1E4BFF2870B59E6A35D89A6D91
S2140023E012F4803F18BF01211A4A18BF91620221D9
S2140023F091629B6DDC0303D5154A936D9907FCD556
S2140024000222144B124D1A65AC6D14F08044FBD1B9
S214002410114AAB6992F9002023F47F03024423F4A7
S2140024207F4382F3080243EA002343EA0243AB6198
S21400243031460220FFF7CCFDAB6DDB0303D53146FA
S2140024400120FFF7C5FD204670BD2124FBE700BF35
S21400245000C0005000D000505A2C0020014B93F9C9
S214002460000070475A2C002001221548154B816A3F
S2140024709A62826D02F00302032AFAD102229A625D
S2140024801A650F4A936D5B00FCD40F48936D30EAD3
S2140024900303FBD101220B4B1A65A3F580539A6DFB
S2140024A09007FCD49A6D9207FCD50222054B1A655C
S2140024B0034A936D9B07FCD50320FFF789BD00BF39
S2140024C000C0005000D0005003000100F0B5D0E975
S2140024D001434FF480061A4A4178057856664FF451
S2140024E0D156022702F5B8325662164E4F2977604B
S2140024F04FF0010728BF4F2106F580567760166912
S214002500F603FCD441EA052151611B01417B43EAF5
S21400251004230B43017B43EA41039360C37B817B27
S2140025201B0143EA4113417C0B43017C43EA410310
S2140025305360837C13B16FF4D1535362F0BD00BF78
S2140025400090005000100250014B1880704700BFEA
S214002550F00E0020014B1880704700BFEE0E0020E2
S2140025604FF4001208B5184B5A660223174A5360F8
S214002570936813F48033FBD1012822D1FEF796FE30
S214002580134B984215D003F5122303F5F8639842CF
S21400259013D0104B00EB8002400AB3FBF0F3520A54
S2140025A00A49CA620B6301234B620022074B5A603A
S2140025B008BD45F67A13084AF2E745F61A03074AB5
S2140025C0EEE75362F1E700BF009000500040025073
S2140025D000F0490264666666D8B80500BBCF050001
S2140025E0B0F5207F10B50C4642D008D8B0F5007F75
S2140025F033D003D888B1B0F5C07F0ED010BDB0F58B
S214002600607FFBD11F4A4C1ED2F8803023F0300387
S21400261043EA0413C2F88030F0E717F000F817F02A
S214002620CAF84FF48031184B164A1967136F013CED
S21400263023F4704343EA04331367FEF721FE04468F
S214002640FFF78AFBC0F10201204617F0AEF800F053
S2140026502DF8BDE81040FFF73DBD0A4A4C1ED2F8E3
S214002660903023F0F85343EA0463C2F89030C5E78D
S214002670044A4C1E136F23F4806343EA84231367D3
S214002680BCE700BF008000500090005008B5012154
S214002690022000F0F5F816F0C2FF17F08CF84FF4A1
S2140026A08032014B1A6708BD0090005008B54FF401
S2140026B0C07016F0BCFFBDE808400449884294BFCD
S2140026C0012102214FF42070FFF78ABF80F0FA0242
S2140026D0034B5868C0F30800003818BF0120704745
S2140026E000ED00E0054B420953F8223000F01F00D1
S2140026F023FA00F0C04300F00100704700E100E05C
S21400270010B5224B70B94FF40031214A186051665B
S21400271002F598325268012A03D11E4AD2F80021E7
S2140027201A6010BD1B68002BFBD01B4A5268012A9A
S214002730F7D0184A8020C2F80031FFF7DBFC0528E6
S2140027401FD14FF4C070FFF755FC0128044604D192
S21400275002214FF4C070FFF743FF07220F4B1A61A8
S2140027600122A3F580535A600B4A1369DB07FCD598
S214002770012CD6D12146BDE810404FF4C070FFF7BB
S2140027802FBF0122064B5A60CBE700BF281F002050
S214002790009000500080005000C0015000E0015042
S2140027A000D00150044A4178536F23F4407343EA43
S2140027B001235367704700BF0040005010B5044621
S2140027C010B10020FFF79CFF104A136943F0040382
S2140027D0136102F09FFE17F018F80D4B0D4AC3F870
S2140027E0202417F002F81FF0FBF917F002F817F094
S2140027F00DF802F0B7FE1CB9BDE81040FEF740BD6C
S2140028000120BDE81040FFF77BBF00BF00ED00E0F1
S21400281000E003500000FF0F10B5044610B1002082
S214002820FFF76EFF0E4A136943F0040313610D4B66
S2140028300D4AC3F8202402F06DFE16F0D6FF1FF0F6
S214002840CFF916F0D6FF02F08DFE1CB9BDE8104099
S214002850FEF716BD0120BDE81040FFF751BF00BFD0
S21400286000ED00E000E003500000FF0F034A01798E
S214002870D36E23F030030B43D366704700400050FE
S214002880F8B504461C4BD3F88420D106FBD4D3F805
S2140028908430C3F381139C422CD0FEF7D7FC012C66
S2140028A0064602D1214616F080FF16F09EFF4FF036
S2140028B00072124B07465A66204616F0AEFF4FF4DB
S2140028C080630D4D621E93402B676B6E9A0103D496
S2140028D0D5F884309B060AD5384616F08AFF022CB7
S2140028E008D13046BDE8F840002116F05EBFD5F8A6
S2140028F08430EAE7F8BD00BF00400050006000509A
S21400290010B50C4608B9FEF7A1FC074B21461B780C
S2140029103BB1064B984204D80120BDE81040FFF7B3
S214002920AFBF0220F9E700BF5B2C0020005A62020E
S2140029300278034B012100201A70FFF7E1BF00BFA9
S2140029405B2C00204FF0004238B5264B26495A66CD
S21400295001224A604AF6CD3103F50B235D6C1964FB
S214002960154030BB9968C9070BD4002401221F4BC1
S2140029705A6015B11E4B1F4A1A641DF0D6FD20463C
S21400298038BD1A498A601C4AD96ACC0705D49042D9
S21400299001D10724EAE70130F6E79042E5D1F8E7EF
S2140029A00132DC6A14F0080406D08A42F8D1072403
S2140029B0DFE700221049F4E78A42F8D020220B4BCA
S2140029C00B495A620122A3F580539A6023460A4AAD
S2140029D0486A800603D49342E9D00133F8E793426D
S2140029E0C7D1E4E70090005000500950006009503D
S2140029F0004009503254FFFF40420F004FF00042A3
S214002A0038B5174B174C5A66012203F50C235A604B
S214002A104AF6CD33656C2364437893401343124AD9
S214002A20D363C3788178A2689B0043EA011322F03F
S214002A3074021343A3600279837943EA0223236175
S214002A404279C37943EA022363610078FFF77AFF8D
S214002A50EB0744BF054B23641DF067FD012038BD1E
S214002A600090005000400950004000503254FFFFD4
S214002A70072A2DE9F041154698464FF0030401F069
S214002A8003072DD89600B44000FA06F221461C48EB
S214002A9016F0C4FE21461B4807FA06F216F0BEFEE4
S214002AA0194B1A499DF81800B8F1000F18BF1946BF
S214002AB0012303FA05F50D60154B1649002818BFCB
S214002AC00B461D60144B9DF81C00C3F820541031B3
S214002AD003F22443002818BF0B461D60BDE8F081B2
S214002AE0A2F10806B600B44000FA06F221460B48EA
S214002AF016F094FE21460A4807FA06F2CEE700BF13
S214002B0000C4035008C4035010D4035010E403500C
S214002B1014E4035014D4035000E0035004C40350DC
S214002B200CC40350F8B504460D461F4616464AB177
S214002B3001238B403021184A01FB0022F7B141F2F5
S214002B401001535004EB4403072D4FF00F014FEADA
S214002B50031316D8A80006FA00F281400F4818445E
S214002B6016F05CFE4EB9012330210B4AAB4001FB48
S214002B70042277B141F210015350F8BD42F2100121
S214002B80DFE7A5F10800800006FA00F2814004485D
S214002B90E5E742F21001EFE700C0035004C003501F
S214002BA00CC00350104B0140D3F8302422EA000238
S214002BB0C3F83024D3F830241143C3F83014D3F8C4
S214002BC02C240243C3F82C24084AD36E03F03003A7
S214002BD0202B1FBFD36E23F0300343F01003D366C1
S214002BE0034BC3F82004704700C003500040005059
S214002BF000E0035038B514461D46032283F0010357
S214002C00FFF790FF012004F11001884005FA01F15A
S214002C10FFF7C8FF9DF81010034B044A002918BFA1
S214002C201346186038BD00BF24E4035024D4035074
S214002C30F8B505460E4614465AB303F003078368F4
S214002C4023F44073836016F0D0FDAA6882EA072357
S214002C5003F440735340AB6016F0CBFD36B9104B0F
S214002C609D4217D12E2016F0E2FC0646AB680D4BAF
S214002C70DA5D62430DD0A2EBC403013B3344B3FBE1
S214002C80F2F3AA68013B920702D5002B08BF012386
S214002C90AB61F8BD044B9D42E8D12F20E3E700BFAF
S214002CA00000015ABD2102000080065038B50023FE
S214002CB00E4A036400F50053DA634A7804460D466C
S214002CC000F108037AB903F5805302221A60204601
S214002CD0D5E901122B7BFFF7ABFF20462978BDE82C
S214002CE0384016F0ABBD03F50053EEE7FFFF1F00BC
S214002CF04FF400120B4B10B5C3F88020BFF34F8F74
S214002D00BFF36F8F0024FF22074B21465C6520200F
S214002D109A625C60FFF7BEF92146BDE810402120AC
S214002D20FFF7B8B900E100E000000450044A054B84
S214002D30002908BF1346012282401A60704700BF70
S214002D40401004504020045010B5012104462020B5
S214002D50FFF7A0F901212120FFF79CF90122114B72
S214002D605A60227812069A606178A27842EA014296
S214002D709A61FF229A6200229A631A644FF0004218
S214002D805A654FF0FF324FF4001103F500531A65F1
S214002D90054AC2F88011E3781B01DBB282F81533CE
S214002DA0116010BD0000045000E100E0F8B50125F8
S214002DB0C3B2DFF888C0D1F800E09D408F7ACB7AA6
S214002DC00C46097BCCF850500CF5005C4CF820E023
S214002DD04FF0300E184E1B050EFB006094F80DC029
S214002DE043EA074343EA415322F00302C0F860C0B7
S214002DF0C365026716F000FD736D2B437365237A77
S214002E0013B1336C2B433364637A13B1B36B2B4328
S214002E10B3632279A37943EA0243084A936161794E
S214002E20E37943EA014306498B61034B55639D648E
S214002E30BDE8F84016F0E6BC000004500020045040
S214002E400010045010B50124C0B2844016F0D4FC23
S214002E50044B5A6D22EA04025A659C62BDE8104093
S214002E6016F0D0BC0000045010B50124C0B2844057
S214002E7016F0C2FC074BDA6A224208D15B6B9C4311
S214002E800CBF0124002416F0BDFC204610BD002413
S214002E90F9E700BF000004504FF40032054B9A6675
S214002EA041F6713203F51C33DA63012203F5005351
S214002EB0DA6070470090005041F671320121064BEF
S214002EC0DA6303F50052D1600022DA634FF4003271
S214002ED0A3F518339A66704700000350CB784A78FB
S214002EE010B55B010C7843EA82030A79234343EA70
S214002EF002130C22424302F1B0421363012C02BFBC
S214002F008A78024B43F8202010BD00BFE8800350AB
S214002F1008B54FF0B0435A686AB958B15B680BB150
S214002F2016F096FC01210D4B596016F091FC4FF0FF
S214002F30B043D96008BD5B680BB116F089FC002869
S214002F40F0D116F085FC4FF0B0430222DA6016F09E
S214002F507FFC0122024B5A60ECE700BF00100058CD
S214002F60002000584FF0B0414B6810B50BB116F07A
S214002F706FFC01220B4BC4785A608378934043EA77
S214002F80840344782343047943EA0413447943EAE8
S214002F90C4038B60044B5A600378C3F10203CB6012
S214002FA010BD00BF00200058001000584FF48032BB
S214002FB0064B5A6603F5E6235B69C3F385128270F7
S214002FC003F03F021B0B42700370704700900050E6
S214002FD0014B986CD96C70470080E00F024B186864
S214002FE0C0F30740704700BF0080E00F0120034B8E
S214002FF09B680A3303F01F03984070470080E00F79
S21400300070B5054616461C4621B94FF4207016F0DA
S2140030100EFB0146402C1BD003D8DCB1202C1BD065
S21400302070BD602CFCD1042303FB06F2530803EBAF
S2140030304113B3FBF2F3094A203B02EAC303AA6832
S21400304022F06002AA60AA681443AC60EB61E7E76E
S2140030500623E9E71023E7E70823E5E7F8FF7F0004
S214003060012200F580535A6040F6AA6341F2050239
S214003070436100230B498360C365C26000F50052BC
S2140030800361C361C364916407498365884203D1C1
S21400309003650023436502E004498842F8D0012313
S2140030A053607047FFFF010000C005500000065047
S2140030B070B50D46FFF7D4FF012300F58056736008
S2140030C0AB7C04461BB1836843F080438360EB7C93
S2140030D05BB1354A2B7D944245D1A2F51032C2F839
S2140030E08C31E36D43F08003E3652A8A6B7B2046D0
S2140030F01343EA891343E3602B7BD5E90112FFF7FC
S2140031007FFF6B7D1BB1A36843F48033A360AB7D68
S2140031101BB1A36843F40043A360EB7D2A7E1B0724
S214003120120502F4E00203F0E0431343A365697E50
S2140031301D4A8B1E012B1D4B1FD894421BD002F537
S214003140804294420CBF01224FF0FF3203EB421341
S214003150022041F21C620329985020D10423F36513
S2140031602B78636170BD124A944204BFA2F52032E8
S214003170C2F89C31B5E70022E8E794420DD00C4A2D
S21400318094420CBF01224FF0FF3203EB42130220A1
S21400319042F21C6201299850DFE70022F5E704227C
S2140031A004F50053DA65DBE700C0055000C00350A5
S2140031B00000065038B50446054D1DF0DAF90FCC70
S2140031C00FC594E8030085E80300002038BD00BF63
S2140031D02C1F002047F6FF739A42F0B56FD00229E5
S2140031E06FD8394B5B5C012B6BD8384DDF0005EB95
S2140031F0C30415F83330A178012B13D10025E078ED
S214003200401AA84202D80844C0B2F0BD431B666804
S214003210A0EB530336F913609642D4BF1D4603F164
S214003220FF30EEE760680028EFD0B0F90040944227
S21400323004DBB0F902409442B8BF144683883D448C
S214003240FF2B19BFC8224FF0280CB0F90620B0F9A2
S21400325008C0A2EB04030CBF0126002693FBFCF378
S21400326033446E781BB29E4201DD002B01DA731EDA
S2140032701BB24FF47A7C01339BB2071D5D1E2DB244
S2140032804FEAC50E00EBC505EA88AD689E4214FB02
S214003290025222EAE27202F15C02B2FBFCF204DDA8
S2140032A037F8335001339542E8D200EB0E03988886
S2140032B0904228BF1046884238BF0846A4E7FF2041
S2140032C0A3E70020A1E700BFC12102002C1F0020B9
S2140032D00229F0B555D82C4B585C012851D82B4CF8
S2140032E004EBC00114F830004B6801280FD1C878F1
S2140032F08C78904294BFC4EB0001C4EB0201001B23
S214003300CAB28242C8BF002233F91200F0BD002BB9
S21400331037D08878904202D3B3F90200F6E7CC782B
S214003320B3F900009442F1D94C789988013CA1F198
S214003330FF06714203F10405E4B2714103F10C0784
S214003340CEB2B44216D805EBC1014FF47A756A4383
S214003350B1F902404968521A04EBD47102EB6102DB
S21400336092FBF4F29042D1DBB3F902009042CDDC3E
S21400337010B2CBE737F831C04E1C9445E3D3314644
S214003380DEE70348C2E700BFC12102002C1F002071
S2140033900080FFFF08B50448FFF70CFFBDE80840B3
S2140033A001201DF0EAB800BFC421020000487047A3
S2140033B0F20E00207FB50222084B0949CDE9012311
S2140033C04FF00073CDE90313052301A94FF0FF303A
S2140033D005931DF007F907B05DF804FB006A1800B6
S2140033E0000204001B0603F0706300F00F000902E1
S2140033F0034301F47061120402F470220B4313437A
S214003400014A1360704700BF0020025C60B50546A5
S21400341019B10139B1F5806F0FD2094EF06810F47A
S2140034208030FBD143EA012312072B4302F080527F
S214003430134343F00043736060BD0120FCE700BF08
S2140034400020025C0122054B9A60DA68D203FCD4A5
S214003450D86820F00F000004000C70470020025CC3
S214003460014B1868704700BF0040025C014B58686B
S214003470704700BF0010025C014B186B704700BF1E
S2140034800010025C014B1868704700BF0010025C19
S214003490014B9860704700BF0010025C014B186437
S2140034A0704700BF0010025C014B5864704700BFB5
S2140034B00010025C014B5863704700BF0010025CAE
S2140034C00022014B1A6070470010025C024A136823
S2140034D043F00103136070470010025C024A136851
S2140034E023F00103136070470010025C43F20402ED
S2140034F0014B1A60704700BF0010025C024A136856
S21400350043F03003136070470010025C044B1A68E7
S21400351042F480721A601A6822F480721A60704749
S2140035200010025C024A136843F48063136070471D
S2140035300010025C034A136823F4702343EA004336
S214003540136070470010025C044B1A6902605A69E7
S21400355042609A698260DB69C36070470010025C53
S2140035600268044B1A6142685A6182689A61C268AE
S214003570DA6170470010025C024B1A6BD207FCD46B
S214003580186270470010025C0322024B1860196133
S2140035905A6370470000025C82B01FB507930A9B0F
S2140035A004AC8B4228BF0B4604E907001048D10044
S2140035B0079948BF03330160099948BF23F0030306
S2140035C023F0704301F0E041194341F0005181605F
S2140035D0002102F0E042019C1A4342F00052C16012
S2140035E004618261416304B0BDE8104002B07047D8
S2140035F00000025C3F22034B1A631022DA610322AA
S2140036009A6370470000025C024AD36B9B07FCD4A7
S214003610704700BF0000025C044B9B6A13F0240F47
S21400362014BF012000208000704700BF0000025C2D
S21400363008B5FFF7F1FF064BDB6B23F47F4323F05F
S214003640EF0303431EBF0122024BC3F8FC2F08BD45
S2140036500000025C00F0FF3F4368182B0AD0202BC6
S2140036601DD0102B2BD1174BD3F80434DB010AD412
S21400367001207047134BD3F804349A01F8D50B6831
S21400368043F008030B6003680F4A934210D10B689F
S21400369043F040030B600023436000207047094B53
S2140036A0D3F804345B01E3D50B6843F00403E9E781
S2140036B0064A9342F1D10B6843F08003EAE70720FD
S2140036C0704700BF0000025C5D2C00205C2C0020D0
S2140036D013B5084CD4F80444E40508D50093134603
S2140036E00A460146002000F01BF802B010BD01207B
S2140036F0FBE700BF0000025C13B5084CD4F8044496
S214003700E40508D5009313460A460146002000F05B
S2140037102BF802B010BD0120FBE700BF0000025CE2
S214003720F0B516465A688DB0102A0D46129F15D170
S2140037307A68102A12D10A4A09AC07CA84E8070038
S21400374022462946CDE90547CDE90344CDE90144A3
S2140037500448009616F090F90DB0F0BD0720FBE780
S2140037604822020030000100F0B516465A688DB0B7
S214003770102A0D46129F15D17A68102A12D10A4ACD
S21400378009AC07CA84E8070022462946CDE9057435
S214003790CDE90344CDE901440448009616F06CF9DF
S2140037A00DB0F0BD0720FBE7482202001000010024
S2140037B070B598B0002843D02C4C08AD0FCC0FC580
S2140037C00FCC0FC50FCC0FC594E80F0085E80F008F
S2140037D06D4604AE04F1100320340FCB85E80F00CD
S2140037E094E80F0086E80F00FFF790FE0420FFF72E
S2140037F0A1FEFFF77BFE3046FFF7B2FE002408AEC0
S21400380056F8040B0134FFF7B7FE102CF8D1FFF77B
S2140038102DFE0328FBD90024FFF752FE2646FFF7AD
S2140038201FFE55F8043B01365840042E44EA0004B7
S214003830F5D12CB1012206200D4B1A7018B070BDC0
S214003840FFF764FE0820FFF723FE0020FFF726FEA2
S2140038500720FFF729FE4FF40070FFF72BFE082025
S214003860FFF768FEFFF732FE0020E7E72823020096
S2140038705F2C002008B5FFF749FE0122014B1A70A5
S21400388008BD00BF5E2C00201FB516F052FA044695
S21400389030B1012206240D4B1A70204604B010BD2C
S2140038A0FFF7DEFD0090FFF7DBFD0190FFF7D8FD88
S2140038B00290FFF7D5FD03906846FFF751FEFFF72D
S2140038C0D9FFFFF71BFEFFF72DFEE6E75F2C002073
S2140038D006289ABF014B185C002070478823020018
S2140038E030B5154B87B00293144B0390049346F6FD
S2140038F011030D46059300F077F91428044616D1F7
S214003900684616F0C0FA4FF0A843032202A95A638D
S21400391019601D619A63DA6B9207FCD1142C02D1F0
S214003920684616F0BEFA00F093F9044601E0002857
S214003930E9D0204607B030BD441F00200400002018
S2140039402DE9F04FB1B005468C469E46E8466F4ED0
S214003950DDF8EC90409C06F1100A47463068716826
S214003960083603C75645B846F7D13E9B03EB020818
S214003970C8F1000A0AF00F0AB9F1000F00F09D80A6
S214003980C9F1000707F00F070121DDF8FCB044F08D
S2140039900050C4F11006CDF810B005910690300224
S2140039A000F4F85040F021000790B9F1000F40F005
S2140039B08680CDF820D047F00050002D00F084809F
S2140039C0099121210A9041EA07210B9142F000500B
S2140039D0CDF830C03D9B08A94FEA0A2C0D910E90F9
S2140039E04CF041000F901093002A75D13E9B119128
S2140039F043F0005312933C9B1390149310AB159313
S214003A00434B444A169340F611031793424B00214A
S214003A10002D08BF1346189314AB19933F4B102282
S214003A201A9311231B931CAB18461DF054FA01225F
S214003A301D92002246F0804603461E96239205B944
S214003A40EB46102CCDF880B024AE4BD10123224695
S214003A5000213046219322941DF03DFA20AB002130
S214003A6025938F4218BF334647F0804226923A9AF3
S214003A702CA828922993B2FA82F35B0949EA837349
S214003A8010222B912A931DF026FAB9F1000F00D0D0
S214003A9028AED04448F080432CA918A82D962E9323
S214003AA0FFF71EFF30B92DB90346A34225D10028E3
S214003AB018BF2C2031B0BDE8F08F102764E7CDF892
S214003AC020E049F0005078E7002C3FF479AF04A9D5
S214003AD0099101210A9076E73E9B0CAA119241209B
S214003AE0129388E7102200213046219322941DF07D
S214003AF0F2F9002CB2D10123B1E703F1C0026A4407
S214003B0012F8C02C01331043CFE700BF8F2302000A
S214003B1010000020A4230200A823020004000020B6
S214003B20F0B5C0299FB0DDE9244557D0B1F5807FB8
S214003B3004D0802948D029201FB0F0BD01265CB1F2
S214003B4040F23447029410240396049421240197EB
S214003B500594069502AC0AE040F21447029410243D
S214003B60039604942124059401240197069507944E
S214003B7001251024089409950A9221220B950C948D
S214003B800D92174A0AAD0E92164A0F95109242F6FB
S214003B9011021192129313951494159201AA16927B
S214003BA0D3B112AB1793042318931123199316ABB2
S214003BB01A901B9340F61103C9081C911AA806A96F
S214003BC01D93FFF78DFEB7E7012614B94FF4826701
S214003BD0C4E74FF48667B5E70EABE3E70F20ABE725
S214003BE0A02302001000001038B5164B5A6E42F0A3
S214003BF004025A66D3F8802242F00102C3F88022FB
S214003C00114B5B68C3F3080343B14FF0A842D36B74
S214003C1013F0430FFBD11424204638BD4FF0A843C1
S214003C20DC6B14F04304FBD1084D2B681BB9042150
S214003C30284602F059FB2B68013343F000432B6003
S214003C40EAE700BF0080005000ED00E0441F0020BF
S214003C50014B00205B68704700ED00E04FF4005217
S214003C60034B00209A660322C3F86022704700BF09
S214003C70009000504FF40052034B00209A66032237
S214003C80C3F86022704700BF00A00050012300F078
S214003C901F02A0F506200949A0F550604009934090
S214003CA051F820201A4341F82020054951F82020D9
S214003CB022EA030241F82020704700BF5C1F002064
S214003CC0481F00200121A0F506230E4AA3F55063E5
S214003CD05B0900F01F00814052F82300014342F8C0
S214003CE023100949D1E90030034488680344C868B2
S214003CF0096903445B1802BFC2E90033C2E9023314
S214003D0013617047481F00205C1F00202DE9F04F0C
S214003D10A9B003921D4604460822339ECDE904014D
S214003D20414021FA02F34B40980702F1080218BFFF
S214003D309B00202A1C44F4D18123B4FBF3F303EB4D
S214003D40C313E41A734B04F506241B7804F5506479
S214003D50002B3ED1FDF7A8FF074620B16FF091007B
S214003D6029B0BDE8F08F0146402208A81DF0B3F840
S214003D704022394618A81DF0AEF8DFF8B481DFF807
S214003D80B491C3460BF10F0ACDF800A0102208A983
S214003D905B46D9F800001CF07BF90022014608F1CA
S214003DA0100808AF914246D1CDF800A05B4610221D
S214003DB0D9F8000018A91CF074F94FF0000A8346E1
S214003DC018AFD34541D1544B9845DAD10122514B17
S214003DD01A704FF0810A4FF00008DFF85CB1A4F5C6
S214003DE00627A7F550635B095BF8232004F01F0144
S214003DF0CA40D2073DD4494A52F82330CB40DB07AD
S214003E002AD5B8F1000F08BFA0468123A7F6FF47C2
S214003E10B7FBF3F303EBC313FF1A07F50624BAF157
S214003E20010A04F55064DAD1039BBBB1B8F1000F68
S214003E3014D0444619E057F8040BCDE90612FFF7F4
S214003E4025FF079A06990132ACE757F8040BFFF7EF
S214003E5039FF0AF1010AB4E7039B13B96FF08B0030
S214003E607EE7B8F1000F18BF4446349B00201C6064
S214003E7076E7329B13B10023329A13600EB100230B
S214003E8033601023DFF8AC9000932A4600232146C7
S214003E90D9F800000CF022FE60BB32992A68204B4D
S214003EA0C9B99A4206D02146D9F800000CF0AEFEF9
S214003EB00028D3D1D5E90223DDE90410834208BFE8
S214003EC08A42A2D1039B002BCFD06B68012BCCD1AA
S214003ED06FF0840044E7102032999A420860E2D1DD
S214003EE0002EE7D033462146D9F8000018AA0CF079
S214003EF049FE48B10B4B9842D5D00B4B9842D2D0D6
S214003F000A4B9842D6D029E7329A336812689B1A31
S214003F103360CFE7602C002000710800481F0020A7
S214003F20105D175EFFDF00F011E000F0FEDF00F02E
S214003F30006D0800200B00205C1F00202DE9F04FCC
S214003F4087B08246894698461646DDF840B02AB1C4
S214003F50002B4FD040F26C739A424ED8BBF1010F43
S214003F604ED8002406F1100739460120059416F0B5
S214003F7028FB0546002846D021463A461CF0ABFFF3
S214003F8005ABCDE9014300942B4601225046494635
S214003F90FFF7BCFE044680B110F18C0F08BF6FF02F
S214003FA08D043A46002128461CF095FF284616F058
S214003FB018FB204607B0BDE8F08F144BC5E902A9F0
S214003FC02B60C5F804B02EB13246414605F110000C
S214003FD01CF0D5FE059E0E483B462A463146006834
S214003FE00CF0E4FC18B93046FFF750FED9E76FF046
S214003FF09104D6E76FF08604DBE76FF09104D8E70C
S2140040006FF08504D5E76FF08C04D2E7105D175E7D
S214004010200B00202DE9F0438DB08146DDE91478B1
S2140040200E4615461C469BB1B8F1000F05D16FF041
S214004030860630460DB0BDE8F083002FF7D0B7F106
S214004040005FF4D3C3F1005303F500439F42EED85C
S2140040501022002108A81CF03EFF002207AB0293A6
S21400406005AB019306AB31460093484608ABCDE955
S2140040700522FFF74BFE06460028DAD1059BA4B1C1
S214004080AB4215D853EA0504D1D1069B0B48C8F8B5
S214004090004000943A46079900682B440CF01EFD39
S2140040A0002818BF6FF09106C3E7AB42EDD2BEE71B
S2140040B05B1B9C4228BF1C46E7E700BF200B002086
S2140040C030B58DB00C4605461022002108A81CF01D
S2140040D002FF002207AB029305AB019306AB214615
S2140040E00093284608ABCDE90522FFF70FFE0446ED
S2140040F0D8B9099B012B1BD0079D104B2946186881
S2140041000CF084FDB8B90122A5F506230C49A3F5E9
S21400411050635B0905F01F00824051F823004240BF
S214004120284641F82320FFF7CDFD20460DB030BDD0
S2140041306FF08404F9E76FF09104F6E7200B002097
S2140041405C1F00202DE9F04F89B007460E46FFF7AA
S21400415099F9C00709D40424012015F0F7FD80B3AF
S214004160013CF9D16FF0920028E0102200210DEBFF
S21400417002001CF0B0FE04A8FFF7E6F9049B002B33
S214004180E9D0059B002BE6D0069B002BE3D0079BCF
S214004190002BE0D00025DFF8808008F10409B54246
S2140041A019D34FF48A74FFF767F900F00E03062B55
S2140041B02DD1C30501D5FFF791F9002009B0BDE860
S2140041C0F08FFFF759F910F00E03FAD0022BF8D053
S2140041D04105DFD5C4E7FFF749F9A6EB050A8400D9
S2140041E0544528BF544699E8030000238DE8030091
S2140041F0CDE9054307EB050BCDF810B0029404AAF1
S214004200D8F8003007CA15F00DFD2544C7E724FA94
S21400421003F3DA07A6D5C6E7AC2302002DE9F04380
S21400422089B00E4615461F46DDF8488020B96FF067
S214004230860009B0BDE8F0830029F8D0002AF6D041
S214004240B8F1000FF3D0038803F44F42B2F5824F63
S21400425002D06FF08500ECE7DAB2122A01D0172AF6
S214004260F7D123F0FF03B3F5E24F41D14488C8F8F5
S214004270004044B9EB00B3F5807FC8F80030E8D1C1
S214004280122A0DD108E0E31DB5EBD30FCFD1B4F55C
S214004290807FDED1122A29D1354B1C681B691C444D
S2140042A00023194670192C4414F801CD10F8012D7E
S2140042B01143B2EB0C020CBF4FF0FF3C4FF0000C6A
S2140042C086420CEA030343EA0203EDD10029AED08E
S2140042D0002BACDA109B9D4246D82A46314638461B
S2140042E01CF04DFD119B00201D60A2E70024D7E7BF
S2140042F03378042B9BD16B1EDB005B08B3F5807F05
S214004300C8F80030A5D1122A06F1010318BF4FF0F5
S21400431000094FF0400205934FF000030ABF144C0B
S2140043204C46D4F80C90CDE90623FFF797FC0028FE
S2140043307FF47FAFCDF80C90D8F800300733DB0859
S214004340029308AB13E903008DE80300059B94E88D
S214004350070015F0B8FC0446FFF78CFC00287FF435
S21400436068AF002CB6D062E76FF0890061E700BF47
S214004370542202000388B3F5105F0ED14388DB0891
S214004380103B102B0CD8084A22FA03F313F0010F47
S21400439014BF00206FF0860070476FF085007047EE
S2140043A06FF08600704700BF010101002DE9F04163
S2140043B0069F0C461646054610B309B302B9FBB96C
S2140043C06288B3EBD20F4FEAD20819D34C220021F1
S2140043D028461CF080FD0D4B27F47E129A4212D11F
S2140043E02046FFF7C7FF044638B942463146281D27
S2140043F01CF0C5FCC5F824802F602046BDE8F0817F
S2140044006FF08604F9E76FF08504F6E70002C00354
S2140044102DE9F0410E4614460546002840D00029F6
S2140044203ED092B10368214823F47E1383423AD1EA
S214004430AF6BF7B1C7F1100807F1280042452844D2
S21400444006D227441CF09BFCAF630020BDE8F08139
S21400445042461CF094FC1022103C3C19AA63F4D08F
S214004460284605F1280115F064FD0028EED14644E3
S214004470A863102C0CD9671E27F00F073A46314662
S214004480284615F056FD0028E0D1E41BDDD03E445A
S2140044902246314605F128001CF071FCAC63D4E7D7
S2140044A06FF08600D2E76FF08800CFE70002C00307
S2140044B02DE9F04388461F4605468BB070B169B1BA
S2140044C063B10368234923F47E1088423ED113F477
S2140044D07C1FC3F3054604D0102E03D96FF0860464
S2140044E02AE0102696422BD8FFF7B8FB044618BBE6
S2140044F0AB6B05F12802CDE901236B6A2A1DCDE9D5
S21400450004231023CDE9083007AB1A460390069023
S21400451005F13C0901A904A8CDF81C90FFF7ECF8BA
S2140045200546FFF7A7FB04466DB928B9324649464B
S21400453040461CF024FC3E6020460BB0BDE8F083ED
S2140045406FF08904F8E76FF09204F5E76FF08504E2
S214004550F2E700BF0002C00307B56B46054A1068C5
S214004560516803C36846FEF749FA002003B05DF8B9
S21400457004FB00BFB823020013B50024064A6846B1
S214004580536F43F00103536700948DF80440FEF721
S2140045906DF9204602B010BD0040005030B58BB01B
S2140045A06C46174D0FCD0FC40FCD0FC495E8030012
S2140045B084E80300134BD3F84C2112031CD5A3F553
S2140045C0FE431C884FF6FF739C4208BF79248DF883
S2140045D01940FDF743FF204480F308008DF81800CB
S2140045E00948FCF769FE6846FDF758FE3220FDF7DD
S2140045F0B1FF00200BB030BDD3F85041E4B2E6E77F
S214004600C02302000080E00F00F0490230B5094DDB
S21400461087B001AC0FCD0FC42B6801A823602A23F6
S2140046208DF80530FDF752FF3220FDF78DFF002094
S21400463007B030BDE82302006FF00403502110B528
S2140046400A480B4C13F0800F03F1010207D12344F4
S214004650402A83F800131346F4D1002010BD03F05F
S2140046600F03043B034419761346EBE700ED00E026
S21400467000E100E010B5044615F0B7F8024B1C60E8
S21400468015F0B7F8002010BD701F002010B515F00B
S214004690ACF8034B1C6815F0ACF8204610BD00BF04
S2140046A0701F0020034B02221868002380681946FA
S2140046B013F020BC100C002030B51446054687B019
S2140046C0104615F00EFD6369024683423CBFD4E9EE
S2140046D003315B181B1A7BB10F4904940391002128
S2140046E0CDE90131012300932846D4E9001314F0E4
S2140046F047FF002007B030BD0122627694F82D20D7
S214004700002AF6D084F835301321E369204698470E
S2140047102046636A9847ECE7B94600002DE9F04763
S21400472088B004460F461646984615F065F881464A
S214004730002E7AD0237E03F0FF02002B00F0A2802A
S214004740204615F0CEFC6569A84205D1637ED4E903
S214004750033213445D1B01E0F9D9451BB54228BF5F
S214004760354615F049F894F82D308246002B6DD169
S2140047702A46384661691CF002FB63692E462B44C4
S214004780636121E0037803F0FD0111295BD1216B01
S214004790814205D1A3F111014B424B4184F83430DC
S2140047A0013E6369216B01328B4203F1010308BFAE
S2140047B02363636195426069E4D1D4E90323216BE6
S2140047C01344994200D122630025D4E9032361698A
S2140047D01344994208BF6261207A6576FDF7ACF80B
S2140047E0204615F07EFC6369834232D1257694F824
S2140047F02D30E568656103B125632046636A9847F6
S214004800214B049403930023029323692A460193C1
S2140048100123009363682168207A14F0B1FE207AA1
S214004820FDF7AAF8504614F0EDFF4846C8F80060B9
S21400483014F0E8FFD8F80030002B0CBF1B20002037
S21400484008B0BDE8F08707F8013BAAE72E4600222D
S214004850B0E70123207A23760DF11E01FDF7F4F868
S2140048609DF81E30002BDAD00DF11F01207AFDF7DF
S214004870C3F89DF81F100029D1D12246207AFFF7F1
S2140048801BFFCCE71646D0E7B9460000002807DB3A
S21400489001234109034A00F01F00834042F82130FB
S2140048A0704700BF00E100E0002808DB0122430952
S2140048B0034900F01F008240603341F82320704710
S2140048C000E100E070B504460568FFF7DFFE8442AD
S2140048D002D10020FFF7CEFE95F936603046FFF78E
S2140048E0E3FF002E0CDB01221949730906F01F06B0
S2140048F0B240203341F82320BFF34F8FBFF36F8FB2
S21400490095F937603046FFF7CFFF002E0CDB01220B
S2140049100F49730906F01F06B240203341F82320E2
S214004920BFF34F8FBFF36F8F287AFDF745F8287ACD
S214004930FCF7A8FFFCF784FF00232846C4E90033F1
S214004940C4E90433A360AB6ABDE87040184700BFF3
S21400495000E100E02DE9F0430C461546064687B018
S2140049604022002120461F461CF0B5FA95E80300B9
S21400497000232A692376EB6884E80300C4E904234D
S2140049802A7DE36084F82C20AA7D2363012384F823
S214004990343084F835300E9B84F82D2023620F9B2C
S2140049A0E7616362109BA3622B7A84F836306B7AD9
S2140049B084F837302D4B346073602D4BB3602D4B2D
S2140049C033612D4B73612D4BF360FCF781FF38B1DB
S2140049D02B4B984204D01024204607B0BDE8F08345
S2140049E0002104F10800FCF7FBFE07460028F2D180
S2140049F04FF00108234B3362234B84F83C80B361AD
S214004A00224BF3619DF8483084F8390084F83B3037
S214004A109DF84430204684F83A30697D84F8388022
S214004A2015F06FFB95F909904846FFF73DFF48469D
S214004A30FFF72CFF164B0494CDE902732369CDE9EA
S214004A4000836368E2682168207A14F099FD0446C2
S214004A500028C0D195F908502846FFF725FF2846BC
S214004A60FFF714FF3046FFF705FEB5E753A1010038
S214004A701D470000D1A00100D7A00100C5480000D6
S214004A80038000F0ABA0010003A10100DDA001003F
S214004A90B94600002DE9F04101271C46584B86B068
S214004AA00293584B0C9D0193574B904600930A4631
S214004AB0CDE903772946554BFFF74CFF06460028FD
S214004AC040F09680236839462B6463683A206B640E
S214004AD0637A85F84930237A85F84830E37A85F892
S214004AE04B30A37A85F84A30637B85F84D30237BBC
S214004AF085F84C30E37B85F84F30A37B85F84E3045
S214004B00FDF7C8FA3B460422617A207AFEF70AF8D7
S214004B103B460222E17AA07AFEF704F8394660683E
S214004B20FDF7B8FA88F8006041462068FEF7C0FA3C
S214004B301422637C5B0103F1A04303F57033C3F8D2
S214004B401C26617A227A42EA0142C3F83426E17AC8
S214004B50A27A42EA0142C3F82C2685F8506098F8FB
S214004B601930032B4AD8DFE803F03447021C02232F
S214004B7085F8503000230422E17BA07BFDF7D2FFAE
S214004B80022741F21C61627C214B03EB4210475026
S214004B90E07BA17BB13241EA004103EB421399600E
S214004BA017E0012785F8503002220023617B207B26
S214004BB0FDF7B8FF637B227B617C42EA0342154B1C
S214004BC049015A500422236803F58053DA65002F02
S214004BD0D0D1237A2A6C85F84830637A052185F887
S214004BE04930D36C206843F00403D36414F038FED5
S214004BF0304606B0BDE8F0810027D3E72326F7E766
S214004C0081A2010075A201000DA3010001A301000D
S214004C1000C0035024D60350BFF35F8F074B5A6A79
S214004C2022F480325A62D3F8942022F00102C3F8AC
S214004C309420BFF34F8FBFF36F8F704700ED00E0F7
S214004C4070B52948294CFFF7E7FF8442284D2949CB
S214004C5019D1D5F8C03023F0FF0343F0A003C5F800
S214004C60C0304FF080430A68214D234EC5F8982087
S214004C7043F0010301328442C5F89C60C5F8A030B9
S214004C800A601ED00DE0D5F8C02020F01F03203BA0
S214004C9022F0FF0242F0A002B3F1005FC5F8C02088
S214004CA0E1D2164B0A68124823F01F0343F00303B1
S214004CB0C0F89820C0F89C30114B0132C0F8A030E4
S214004CC00A60BFF35F8F0522094BC3F894205A6A27
S214004CD042F480325A62BFF34F8FBFF36F8FBFF339
S214004CE04F8FBFF36F8F70BD240F0020FC10002085
S214004CF000ED00E0741F0020030000201B110020C0
S214004D00E1FFFF3FF8B51446FFF786FF1F2C27D9B3
S214004D100027C2062A4D1CBF20F01F0020302A683C
S214004D20CB06284B18BF21F01F01FCB2A2422BD89D
S214004D30D3F8C04020F01F0024F47F4444F480746D
S214004D4021F01F01C3F8C04040F00300C3F89820CC
S214004D5041F003010132C3F89C00C3F8A0102A609A
S214004D600020BFF35F8F0522164BC3F894205A6AC3
S214004D7042F480325A62BFF34F8FBFF36F8FBFF398
S214004D804F8FBFF36F8FF8BDC3F89840D3F89C40A1
S214004D90D3F8A06024F01F04A04226F01F0601D11D
S214004DA0B142DDD0B04201D8A14207D2D3F8984034
S214004DB0013724F0FF04C3F89840B6E72820D0E770
S214004DC0741F002000ED00E0BFF34F8F0549064B2F
S214004DD0CA6802F4E0621343CB60BFF34F8F00BF94
S214004DE0FDE700BF00ED00E00400FA05054B1A7869
S214004DF02AB95B78002B0CBF0320022070470120E5
S214004E00704700BF6B2C00200329F8B598BF124BE3
S214004E1005460E468CBF00245C5C032805D8DFE8F8
S214004E2000F002080B0E44F002040C4B1F684FB94A
S214004E30F8BD44F00804F8E744F02004F5E744F031
S214004E408004F2E77B681A68144203D0314628468D
S214004E505B6898473F68EAE7FC230200A41F00202F
S214004E6038B5104D2B78ABB10F4C23781BB100F042
S214004E70B7FB00232370002015F0B1FA0B4C50B19D
S214004E8000F000FC0023012120782B70FFF7BCFF08
S214004E900123237038BD0122054B1A702278054B7A
S214004EA01A70F7E7662C0020642C00206D2C00207A
S214004EB0672C0020682C002010B514F096FC064BDA
S214004EC004461B781BB1BDE8104014F092BCFFF7F7
S214004ED0C7FF2046F7E700BF632C0020094A137877
S214004EE030B101331370084B1B78012B03D8704781
S214004EF0013B13707047054B1B780BB9FFF7B0BF2B
S214004F00704700BF6B2C00206D2C0020672C002003
S214004F1070B514F06AFC124E054633789BB900F063
S214004F20EDFC044620B1284614F063FC204670BD14
S214004F300C4814F057FA00F089FF0B4B1C6000F089
S214004F40A9FD0A4B186000F02BFA15F04AFA084B38
S214004F500024186001232846337014F04AFCE5E765
S214004F606E2C0020A41F0020781F0020A01F002009
S214004F707C1F00202DE9F843284A0138135C39B11C
S214004F80274F013339781354012904D8BDE8F88334
S214004F90013B1354FAE7FFF729FF0128044635D8EA
S214004FA014F023FCDFF88480054698F8003013B32D
S214004FB01C4E33781BB9012232701B4A1370DFF87F
S214004FC0709099F8003023B100F00AFB002389F8AE
S214004FD00030284614F00DFC012015F000FA14F0FD
S214004FE004FC337805461BB100F04CFB00233370FD
S214004FF0002388F80030284614F0FBFB3878A042DF
S214005000C4D02146FFF700FF3C70BFE70329F5D167
S2140050100228F3D115F0E9F9F0E700BF6B2C002069
S2140050206D2C0020632C0020672C0020662C0020AE
S214005030642C002010B5044614F0D7FB002C0CBFDF
S214005040FF210121064A13780B44DBB21370B3FA32
S21400505083F3BDE81040034A5B09137014F0C9BB24
S2140050606A2C0020692C002038B514F0BEFB094BD2
S21400507005461B78012B04D814F0BBFB0024204601
S21400508038BD054B1C6800F047FB0444284614F066
S214005090B0FBF4E76D2C0020781F002038B5416087
S2140050A0044614F0A2FB05462146044814F09DF978
S2140050B02846BDE8384014F09CBB00BFA41F002063
S2140050C0054B1B685843054B00F5742000F23F2043
S2140050D0B0FBF3F0704700BFA01F002040420F0057
S2140050E02DE9F04F85B0EFF3108772B6AFF300806E
S2140050F014F0C1F800286FD0804EDFF82C82337889
S21400510023B10020FFF7EAFE00233370FFF76EFEA0
S2140051100446002867D0841EE4B2012C6AD9FFF743
S21400512065FE01280546764CDFF8009200F28C807A
S2140051302078854240F0C680207800F0D7FA99F8AB
S214005140003013B16F4B1B782370AFF3008007B9A4
S21400515062B6EFF3108772B66B4B1A7852B1002224
S2140051601A70684B20781B78984203D10121217071
S214005170FFF74AFE654800F0FBFB14F08BF8054687
S2140051800028BCD1624BDFF89481187098F8003084
S214005190ABB189F80000DFF88C9199F800301BB1AC
S2140051A000F01EFA89F80050002015F018F90028C3
S2140051B000F09B8000F066FA002388F80030337811
S2140051C023B10020FFF78AFE0023337000212078E9
S2140051D0FFF71AFE00232370AFF3008007B962B60C
S2140051E005B0BDE8F08F3378002B98D0FFF776FE39
S2140051F0347094E7002003A900F008FC0446002859
S2140052008DD1D8F80030039A9A4205D80120FFF7CE
S21400521065FE0123337082E73E4B1D6800F07CFA82
S214005220039B05449D42F1D200F08EFA820003995A
S21400523042F0020292B2CDE900422346364A491BAA
S214005240324815F0D3F86AE7344BDFF8C4A093F879
S21400525000B0BBF1000F25D100F046F9207885425A
S21400526030D19AF800307BB92C4D2B78002B7FF488
S21400527063AF2B4B1B7823B900F0ACF90122294B06
S2140052801A7001232B7057E7022DEDD18AF800B073
S21400529015E02378022B25D100238AF800301BF076
S2140052A0A4FA1FE0207885420CD19AF80030002B33
S2140052B03FF442AF022DD7D100238AF800301BF00E
S2140052C094FAD1E70023DFF848A08AF8003099F86E
S2140052D0003013B92946FFF797FD9AF8003025707D
S2140052E0002BD6D1012DBFD826E7012000F0FEF90D
S2140052F007B962B6EFF3108772B655E7652C002043
S2140053006D2C0020682C0020612C0020801F0020BF
S214005310692C0020781F0020B94E0000662C002063
S2140053206A2C0020642C00207C1F0020672C0020A4
S21400533010B514F05AFA0022044B1C781A7014F0B8
S21400534058FA00F0C9FC2043C0B210BD622C002001
S21400535073B5114E0446337883420FD04FF4007372
S2140053600E4DADF8043058B101A8FDF71BFA4020E9
S214005370FFF7A6FE2B68181A2860347002B070BDBE
S2140053808DF8050001A8FDF70DFA4020FFF798FEFE
S2140053902B681844F0E700BF090F0020DC1F002030
S2140053A073B5002401A88DF80440FDF7C1FA204625
S2140053B0FFF7CEFF404A4149136F414803F0070309
S2140053C00B60D2F800113F4D01F0030101604FF46D
S2140053D000203D49032B48664FF40030486601F52F
S2140053E098318969C1F3400129705DD0D2F8203127
S2140053F003F00303981E43424341D2F82421334C62
S21400540002F00702022A08BF43F001034FF4C870F7
S2140054102370FFF755FE00222D4B2E4918602E4EA6
S2140054200B680132D2B20A2A46F8040BF9D10344BB
S21400543000EBC00003440B602B78284D63B3237841
S2140054401D4A3BB9D2F8003103F00303591E4B4204
S2140054504B412370D2F8003103F00303022B25D012
S214005460032B26D0012B17D1FBF720FF024698B15D
S2140054701B4B1C4EDC6800231946C4F30B04013496
S21400548004EB84040138E4FB060112F015FAFFF77A
S21400549017FE2B6803442B601F20FFF711FE2B68B6
S2140054A003442B6002B070BD0123A6E7FBF718FF8C
S2140054B0DCE713F08FFFD9E700800050E01F0020E4
S2140054C0E41F0020722C002000900050732C002057
S2140054D0A81F0020AC1F0020B01F0020DC1F0020EB
S2140054E000C0015040420F00074A0849D2F8203158
S2140054F003F003030B60D2F82431054A03F00703D8
S214005500136014F084B900BF00800050EC1F002028
S214005510E81F002008B5104B1A78C2B100221A7096
S2140055200E4B1A6F22F0070242F001021A67D3F8F8
S214005530202142F00302C3F82021D3F8242122F0D0
S214005540070242F00302C3F82421FBF799FE01226A
S214005550034B5A6708BD00BF712C00200080005026
S21400556000E000500122154B10B55A67144B154C3D
S2140055701B7813B3022014F0DEFFF0B100F076FAC9
S214005580D8B1A36DD90302D5E36D9A0715D40D4B98
S2140055909B6DDB0711D401220B4B1A7014F0AAFF87
S2140055A0BDE81040094B0A4A1860136F23F0070342
S2140055B043F003031367FBF763BE10BD00D0005033
S2140055C0732C002000C00050702C0020D81F002034
S2140055D0008000500122014B1A707047712C002089
S2140055E0F8B51F4B1B78002B39D01E4C2378B3B967
S2140055F01D4B9A6DD10302D5DA6D92072FD49B6DA1
S214005600DB072CD414F076FF184B194A1860136F7A
S21400561023F0070343F003031367FBF731FE14F090
S21400562069FF124B134D1B68134EC01A2B78134F8D
S21400563056F8232046F82300111A3A681048521AE2
S2140056400A213A600932B2FBF1F20133DBB20260A2
S214005650B3FBF1F201FB12332B7000232370F8BD6D
S214005660732C0020702C002000C00050D81F002093
S214005670008000506F2C0020B01F0020AC1F0020C0
S214005680A81F002008B514F0C5F8124B12491A6F6F
S214005690096822F007020A431A671049D3F8202146
S2140056A0096822F003020A43C3F820210C49D3F804
S2140056B02421096822F007020A43C3F82421094B73
S2140056C01B7813B10122084B9A62BDE80840FBF72D
S2140056D0D7BD00BF00800050E01F0020EC1F002058
S2140056E0E81F0020732C002000E0005002280AD09B
S2140056F003280BD001280CD1064A136923F00403B3
S214005700136130BF70470020FDF758B80020FDF742
S21400571083B8704700ED00E0054B187818B1054BCC
S214005720186800EBD000044B1B681844704700BF95
S214005730732C0020A81F0020DC1F00200122014B34
S2140057401A707047732C0020014B1878704700BF02
S214005750732C002038B514F0DBFE0025084B094CEE
S2140057601A682368C31A2AB123B15169994203D330
S214005770C91A5161206038BD55615B1A9268F2E71C
S214005780F81F0020F41F0020C38870B504460D469D
S2140057903BB9FFF769FC8542064602D214F013FEB9
S2140057A035460E4965610B688BB90C60A3600DE049
S2140057B0AD1A9A68184665616AB113465A69AA42D4
S2140057C0F6D930B18460521BA3605A6170BD0020C8
S2140057D0F4E70C60F7E79C60A260F7E7F81F00208C
S2140057E038B5134D2B685B6993B1124A02201468D2
S2140057F01C4414F094FE204600F0BCFA00230E4928
S2140058002A680B70D088800709D501230B7038BD35
S214005810022014F084FE022000F0F6FAEEE792680A
S214005820002AF4D050690344012BEBD9EFE700BF00
S214005830F81F0020F41F0020752C002070B51646B7
S2140058409DF81420C0E903360271049ABDF818309A
S2140058500260002204460D468260C380EEB914F052
S21400586057FE2844A0619DB12E4613F0BEFF0546A4
S214005870FFF770FF31462046FFF786FF104B1B6888
S214005880A34201D1FFF7ACFF284613F0B2FF02E0B7
S214005890E36865617BB9002070BD14F039FE3044C2
S2140058A0A061002DE0D1E3686561002BDDD02046C5
S2140058B021689847D9E7204621689847EBE700BF5C
